{
	"wallets.sol": {
		"SimpleWallet": {
			"abi": [
				{
					"anonymous": false,
					"inputs": [
						{
							"indexed": true,
							"internalType": "address",
							"name": "_forWho",
							"type": "address"
						},
						{
							"indexed": true,
							"internalType": "address",
							"name": "_fromWhom",
							"type": "address"
						},
						{
							"indexed": false,
							"internalType": "uint256",
							"name": "_oldAmount",
							"type": "uint256"
						},
						{
							"indexed": false,
							"internalType": "uint256",
							"name": "_newAmout",
							"type": "uint256"
						}
					],
					"name": "AllowanceChanged",
					"type": "event"
				},
				{
					"anonymous": false,
					"inputs": [
						{
							"indexed": true,
							"internalType": "address",
							"name": "_byWho",
							"type": "address"
						},
						{
							"indexed": false,
							"internalType": "uint256",
							"name": "_oldAmount",
							"type": "uint256"
						},
						{
							"indexed": false,
							"internalType": "uint256",
							"name": "_walletAmount",
							"type": "uint256"
						}
					],
					"name": "MoneyReceived",
					"type": "event"
				},
				{
					"anonymous": false,
					"inputs": [
						{
							"indexed": true,
							"internalType": "address",
							"name": "previousOwner",
							"type": "address"
						},
						{
							"indexed": true,
							"internalType": "address",
							"name": "newOwner",
							"type": "address"
						}
					],
					"name": "OwnershipTransferred",
					"type": "event"
				},
				{
					"anonymous": false,
					"inputs": [
						{
							"indexed": true,
							"internalType": "address",
							"name": "_byWho",
							"type": "address"
						},
						{
							"indexed": false,
							"internalType": "uint256",
							"name": "_withdrawnAmount",
							"type": "uint256"
						}
					],
					"name": "moneyWithdrawn",
					"type": "event"
				},
				{
					"inputs": [
						{
							"internalType": "address",
							"name": "_who",
							"type": "address"
						},
						{
							"internalType": "uint256",
							"name": "_amount",
							"type": "uint256"
						}
					],
					"name": "addAllowance",
					"outputs": [],
					"stateMutability": "nonpayable",
					"type": "function"
				},
				{
					"inputs": [
						{
							"internalType": "address",
							"name": "",
							"type": "address"
						}
					],
					"name": "allowance",
					"outputs": [
						{
							"internalType": "uint256",
							"name": "",
							"type": "uint256"
						}
					],
					"stateMutability": "view",
					"type": "function"
				},
				{
					"inputs": [],
					"name": "deposit",
					"outputs": [],
					"stateMutability": "payable",
					"type": "function"
				},
				{
					"inputs": [],
					"name": "owner",
					"outputs": [
						{
							"internalType": "address",
							"name": "",
							"type": "address"
						}
					],
					"stateMutability": "view",
					"type": "function"
				},
				{
					"inputs": [],
					"name": "renounceOwnership",
					"outputs": [],
					"stateMutability": "nonpayable",
					"type": "function"
				},
				{
					"inputs": [
						{
							"internalType": "address",
							"name": "newOwner",
							"type": "address"
						}
					],
					"name": "transferOwnership",
					"outputs": [],
					"stateMutability": "nonpayable",
					"type": "function"
				},
				{
					"inputs": [
						{
							"internalType": "address payable",
							"name": "_to",
							"type": "address"
						},
						{
							"internalType": "uint256",
							"name": "_amount",
							"type": "uint256"
						}
					],
					"name": "withdrawMoney",
					"outputs": [],
					"stateMutability": "nonpayable",
					"type": "function"
				}
			],
			"devdoc": {
				"kind": "dev",
				"methods": {
					"owner()": {
						"details": "Returns the address of the current owner."
					},
					"renounceOwnership()": {
						"details": "Leaves the contract without owner. It will not be possible to call `onlyOwner` functions anymore. Can only be called by the current owner. NOTE: Renouncing ownership will leave the contract without an owner, thereby removing any functionality that is only available to the owner."
					},
					"transferOwnership(address)": {
						"details": "Transfers ownership of the contract to a new account (`newOwner`). Can only be called by the current owner."
					}
				},
				"version": 1
			},
			"evm": {
				"assembly": "    /* \"wallets.sol\":903:1591  contract SimpleWallet is Allowance{... */\n  mstore(0x40, 0x80)\n  callvalue\n  dup1\n  iszero\n  tag_1\n  jumpi\n  0x00\n  dup1\n  revert\ntag_1:\n  pop\n    /* \"https://github.com/OpenZeppelin/openzeppelin-contracts/blob/master/contracts/access/Ownable.sol\":936:968  _transferOwnership(_msgSender()) */\n  tag_4\n    /* \"https://github.com/OpenZeppelin/openzeppelin-contracts/blob/master/contracts/access/Ownable.sol\":955:967  _msgSender() */\n  tag_5\n    /* \"https://github.com/OpenZeppelin/openzeppelin-contracts/blob/master/contracts/access/Ownable.sol\":955:965  _msgSender */\n  shl(0x20, tag_6)\n    /* \"https://github.com/OpenZeppelin/openzeppelin-contracts/blob/master/contracts/access/Ownable.sol\":955:967  _msgSender() */\n  0x20\n  shr\n  jump\t// in\ntag_5:\n    /* \"https://github.com/OpenZeppelin/openzeppelin-contracts/blob/master/contracts/access/Ownable.sol\":936:954  _transferOwnership */\n  shl(0x20, tag_7)\n    /* \"https://github.com/OpenZeppelin/openzeppelin-contracts/blob/master/contracts/access/Ownable.sol\":936:968  _transferOwnership(_msgSender()) */\n  0x20\n  shr\n  jump\t// in\ntag_4:\n    /* \"wallets.sol\":903:1591  contract SimpleWallet is Allowance{... */\n  jump(tag_8)\n    /* \"https://github.com/OpenZeppelin/openzeppelin-contracts/blob/master/contracts/utils/Context.sol\":640:736  function _msgSender() internal view virtual returns (address) {... */\ntag_6:\n    /* \"https://github.com/OpenZeppelin/openzeppelin-contracts/blob/master/contracts/utils/Context.sol\":693:700  address */\n  0x00\n    /* \"https://github.com/OpenZeppelin/openzeppelin-contracts/blob/master/contracts/utils/Context.sol\":719:729  msg.sender */\n  caller\n    /* \"https://github.com/OpenZeppelin/openzeppelin-contracts/blob/master/contracts/utils/Context.sol\":712:729  return msg.sender */\n  swap1\n  pop\n    /* \"https://github.com/OpenZeppelin/openzeppelin-contracts/blob/master/contracts/utils/Context.sol\":640:736  function _msgSender() internal view virtual returns (address) {... */\n  swap1\n  jump\t// out\n    /* \"https://github.com/OpenZeppelin/openzeppelin-contracts/blob/master/contracts/access/Ownable.sol\":2433:2620  function _transferOwnership(address newOwner) internal virtual {... */\ntag_7:\n    /* \"https://github.com/OpenZeppelin/openzeppelin-contracts/blob/master/contracts/access/Ownable.sol\":2506:2522  address oldOwner */\n  0x00\n    /* \"https://github.com/OpenZeppelin/openzeppelin-contracts/blob/master/contracts/access/Ownable.sol\":2525:2531  _owner */\n  dup1\n  0x00\n  swap1\n  sload\n  swap1\n  0x0100\n  exp\n  swap1\n  div\n  0xffffffffffffffffffffffffffffffffffffffff\n  and\n    /* \"https://github.com/OpenZeppelin/openzeppelin-contracts/blob/master/contracts/access/Ownable.sol\":2506:2531  address oldOwner = _owner */\n  swap1\n  pop\n    /* \"https://github.com/OpenZeppelin/openzeppelin-contracts/blob/master/contracts/access/Ownable.sol\":2550:2558  newOwner */\n  dup2\n    /* \"https://github.com/OpenZeppelin/openzeppelin-contracts/blob/master/contracts/access/Ownable.sol\":2541:2547  _owner */\n  0x00\n  dup1\n    /* \"https://github.com/OpenZeppelin/openzeppelin-contracts/blob/master/contracts/access/Ownable.sol\":2541:2558  _owner = newOwner */\n  0x0100\n  exp\n  dup2\n  sload\n  dup2\n  0xffffffffffffffffffffffffffffffffffffffff\n  mul\n  not\n  and\n  swap1\n  dup4\n  0xffffffffffffffffffffffffffffffffffffffff\n  and\n  mul\n  or\n  swap1\n  sstore\n  pop\n    /* \"https://github.com/OpenZeppelin/openzeppelin-contracts/blob/master/contracts/access/Ownable.sol\":2604:2612  newOwner */\n  dup2\n    /* \"https://github.com/OpenZeppelin/openzeppelin-contracts/blob/master/contracts/access/Ownable.sol\":2573:2613  OwnershipTransferred(oldOwner, newOwner) */\n  0xffffffffffffffffffffffffffffffffffffffff\n  and\n    /* \"https://github.com/OpenZeppelin/openzeppelin-contracts/blob/master/contracts/access/Ownable.sol\":2594:2602  oldOwner */\n  dup2\n    /* \"https://github.com/OpenZeppelin/openzeppelin-contracts/blob/master/contracts/access/Ownable.sol\":2573:2613  OwnershipTransferred(oldOwner, newOwner) */\n  0xffffffffffffffffffffffffffffffffffffffff\n  and\n  0x8be0079c531659141344cd1fd0a4f28419497f9722a3daafe3b4186f6b6457e0\n  mload(0x40)\n  mload(0x40)\n  dup1\n  swap2\n  sub\n  swap1\n  log3\n    /* \"https://github.com/OpenZeppelin/openzeppelin-contracts/blob/master/contracts/access/Ownable.sol\":2496:2620  {... */\n  pop\n    /* \"https://github.com/OpenZeppelin/openzeppelin-contracts/blob/master/contracts/access/Ownable.sol\":2433:2620  function _transferOwnership(address newOwner) internal virtual {... */\n  pop\n  jump\t// out\n    /* \"wallets.sol\":903:1591  contract SimpleWallet is Allowance{... */\ntag_8:\n  dataSize(sub_0)\n  dup1\n  dataOffset(sub_0)\n  0x00\n  codecopy\n  0x00\n  return\nstop\n\nsub_0: assembly {\n        /* \"wallets.sol\":903:1591  contract SimpleWallet is Allowance{... */\n      mstore(0x40, 0x80)\n      jumpi(tag_1, lt(calldatasize, 0x04))\n      shr(0xe0, calldataload(0x00))\n      dup1\n      0xd0e30db0\n      gt\n      tag_9\n      jumpi\n      dup1\n      0xd0e30db0\n      eq\n      tag_5\n      jumpi\n      dup1\n      0xf274c897\n      eq\n      tag_6\n      jumpi\n      dup1\n      0xf2fde38b\n      eq\n      tag_7\n      jumpi\n      dup1\n      0xf3c40c4b\n      eq\n      tag_8\n      jumpi\n      jump(tag_1)\n    tag_9:\n      dup1\n      0x3e5beab9\n      eq\n      tag_2\n      jumpi\n      dup1\n      0x715018a6\n      eq\n      tag_3\n      jumpi\n      dup1\n      0x8da5cb5b\n      eq\n      tag_4\n      jumpi\n    tag_1:\n      0x00\n      dup1\n      revert\n        /* \"wallets.sol\":292:334  mapping (address => uint) public allowance */\n    tag_2:\n      callvalue\n      dup1\n      iszero\n      tag_10\n      jumpi\n      0x00\n      dup1\n      revert\n    tag_10:\n      pop\n      tag_11\n      0x04\n      dup1\n      calldatasize\n      sub\n      dup2\n      add\n      swap1\n      tag_12\n      swap2\n      swap1\n      tag_13\n      jump\t// in\n    tag_12:\n      tag_14\n      jump\t// in\n    tag_11:\n      mload(0x40)\n      tag_15\n      swap2\n      swap1\n      tag_16\n      jump\t// in\n    tag_15:\n      mload(0x40)\n      dup1\n      swap2\n      sub\n      swap1\n      return\n        /* \"https://github.com/OpenZeppelin/openzeppelin-contracts/blob/master/contracts/access/Ownable.sol\":1831:1932  function renounceOwnership() public virtual onlyOwner {... */\n    tag_3:\n      callvalue\n      dup1\n      iszero\n      tag_17\n      jumpi\n      0x00\n      dup1\n      revert\n    tag_17:\n      pop\n      tag_18\n      tag_19\n      jump\t// in\n    tag_18:\n      stop\n        /* \"https://github.com/OpenZeppelin/openzeppelin-contracts/blob/master/contracts/access/Ownable.sol\":1201:1286  function owner() public view virtual returns (address) {... */\n    tag_4:\n      callvalue\n      dup1\n      iszero\n      tag_20\n      jumpi\n      0x00\n      dup1\n      revert\n    tag_20:\n      pop\n      tag_21\n      tag_22\n      jump\t// in\n    tag_21:\n      mload(0x40)\n      tag_23\n      swap2\n      swap1\n      tag_24\n      jump\t// in\n    tag_23:\n      mload(0x40)\n      dup1\n      swap2\n      sub\n      swap1\n      return\n        /* \"wallets.sol\":1108:1225  function deposit() external payable{... */\n    tag_5:\n      tag_25\n      tag_26\n      jump\t// in\n    tag_25:\n      stop\n        /* \"wallets.sol\":1232:1579  function withdrawMoney(address payable _to, uint _amount) public ownerOrAllowed(_amount) {... */\n    tag_6:\n      callvalue\n      dup1\n      iszero\n      tag_27\n      jumpi\n      0x00\n      dup1\n      revert\n    tag_27:\n      pop\n      tag_28\n      0x04\n      dup1\n      calldatasize\n      sub\n      dup2\n      add\n      swap1\n      tag_29\n      swap2\n      swap1\n      tag_30\n      jump\t// in\n    tag_29:\n      tag_31\n      jump\t// in\n    tag_28:\n      stop\n        /* \"https://github.com/OpenZeppelin/openzeppelin-contracts/blob/master/contracts/access/Ownable.sol\":2081:2279  function transferOwnership(address newOwner) public virtual onlyOwner {... */\n    tag_7:\n      callvalue\n      dup1\n      iszero\n      tag_32\n      jumpi\n      0x00\n      dup1\n      revert\n    tag_32:\n      pop\n      tag_33\n      0x04\n      dup1\n      calldatasize\n      sub\n      dup2\n      add\n      swap1\n      tag_34\n      swap2\n      swap1\n      tag_13\n      jump\t// in\n    tag_34:\n      tag_35\n      jump\t// in\n    tag_33:\n      stop\n        /* \"wallets.sol\":707:894  function addAllowance(address _who , uint _amount) public onlyOwner {... */\n    tag_8:\n      callvalue\n      dup1\n      iszero\n      tag_36\n      jumpi\n      0x00\n      dup1\n      revert\n    tag_36:\n      pop\n      tag_37\n      0x04\n      dup1\n      calldatasize\n      sub\n      dup2\n      add\n      swap1\n      tag_38\n      swap2\n      swap1\n      tag_39\n      jump\t// in\n    tag_38:\n      tag_40\n      jump\t// in\n    tag_37:\n      stop\n        /* \"wallets.sol\":292:334  mapping (address => uint) public allowance */\n    tag_14:\n      mstore(0x20, 0x01)\n      dup1\n      0x00\n      mstore\n      keccak256(0x00, 0x40)\n      0x00\n      swap2\n      pop\n      swap1\n      pop\n      sload\n      dup2\n      jump\t// out\n        /* \"https://github.com/OpenZeppelin/openzeppelin-contracts/blob/master/contracts/access/Ownable.sol\":1831:1932  function renounceOwnership() public virtual onlyOwner {... */\n    tag_19:\n        /* \"https://github.com/OpenZeppelin/openzeppelin-contracts/blob/master/contracts/access/Ownable.sol\":1094:1107  _checkOwner() */\n      tag_42\n        /* \"https://github.com/OpenZeppelin/openzeppelin-contracts/blob/master/contracts/access/Ownable.sol\":1094:1105  _checkOwner */\n      tag_43\n        /* \"https://github.com/OpenZeppelin/openzeppelin-contracts/blob/master/contracts/access/Ownable.sol\":1094:1107  _checkOwner() */\n      jump\t// in\n    tag_42:\n        /* \"https://github.com/OpenZeppelin/openzeppelin-contracts/blob/master/contracts/access/Ownable.sol\":1895:1925  _transferOwnership(address(0)) */\n      tag_45\n        /* \"https://github.com/OpenZeppelin/openzeppelin-contracts/blob/master/contracts/access/Ownable.sol\":1922:1923  0 */\n      0x00\n        /* \"https://github.com/OpenZeppelin/openzeppelin-contracts/blob/master/contracts/access/Ownable.sol\":1895:1913  _transferOwnership */\n      tag_46\n        /* \"https://github.com/OpenZeppelin/openzeppelin-contracts/blob/master/contracts/access/Ownable.sol\":1895:1925  _transferOwnership(address(0)) */\n      jump\t// in\n    tag_45:\n        /* \"https://github.com/OpenZeppelin/openzeppelin-contracts/blob/master/contracts/access/Ownable.sol\":1831:1932  function renounceOwnership() public virtual onlyOwner {... */\n      jump\t// out\n        /* \"https://github.com/OpenZeppelin/openzeppelin-contracts/blob/master/contracts/access/Ownable.sol\":1201:1286  function owner() public view virtual returns (address) {... */\n    tag_22:\n        /* \"https://github.com/OpenZeppelin/openzeppelin-contracts/blob/master/contracts/access/Ownable.sol\":1247:1254  address */\n      0x00\n        /* \"https://github.com/OpenZeppelin/openzeppelin-contracts/blob/master/contracts/access/Ownable.sol\":1273:1279  _owner */\n      dup1\n      0x00\n      swap1\n      sload\n      swap1\n      0x0100\n      exp\n      swap1\n      div\n      0xffffffffffffffffffffffffffffffffffffffff\n      and\n        /* \"https://github.com/OpenZeppelin/openzeppelin-contracts/blob/master/contracts/access/Ownable.sol\":1266:1279  return _owner */\n      swap1\n      pop\n        /* \"https://github.com/OpenZeppelin/openzeppelin-contracts/blob/master/contracts/access/Ownable.sol\":1201:1286  function owner() public view virtual returns (address) {... */\n      swap1\n      jump\t// out\n        /* \"wallets.sol\":1108:1225  function deposit() external payable{... */\n    tag_26:\n        /* \"wallets.sol\":1172:1182  msg.sender */\n      caller\n        /* \"wallets.sol\":1158:1218  MoneyReceived(msg.sender ,address(this).balance , msg.value) */\n      0xffffffffffffffffffffffffffffffffffffffff\n      and\n      0x3842143a05b067827f219bd5e2cbc92b17806142f836dc8e7c7a02e55dceb929\n        /* \"wallets.sol\":1184:1205  address(this).balance */\n      selfbalance\n        /* \"wallets.sol\":1208:1217  msg.value */\n      callvalue\n        /* \"wallets.sol\":1158:1218  MoneyReceived(msg.sender ,address(this).balance , msg.value) */\n      mload(0x40)\n      tag_49\n      swap3\n      swap2\n      swap1\n      tag_50\n      jump\t// in\n    tag_49:\n      mload(0x40)\n      dup1\n      swap2\n      sub\n      swap1\n      log2\n        /* \"wallets.sol\":1108:1225  function deposit() external payable{... */\n      jump\t// out\n        /* \"wallets.sol\":1232:1579  function withdrawMoney(address payable _to, uint _amount) public ownerOrAllowed(_amount) {... */\n    tag_31:\n        /* \"wallets.sol\":1312:1319  _amount */\n      dup1\n        /* \"wallets.sol\":618:625  owner() */\n      tag_52\n        /* \"wallets.sol\":618:623  owner */\n      tag_22\n        /* \"wallets.sol\":618:625  owner() */\n      jump\t// in\n    tag_52:\n        /* \"wallets.sol\":604:625  msg.sender == owner() */\n      0xffffffffffffffffffffffffffffffffffffffff\n      and\n        /* \"wallets.sol\":604:614  msg.sender */\n      caller\n        /* \"wallets.sol\":604:625  msg.sender == owner() */\n      0xffffffffffffffffffffffffffffffffffffffff\n      and\n      eq\n        /* \"wallets.sol\":604:661  msg.sender == owner() || _amount <= allowance[msg.sender] */\n      dup1\n      tag_53\n      jumpi\n      pop\n        /* \"wallets.sol\":640:649  allowance */\n      0x01\n        /* \"wallets.sol\":640:661  allowance[msg.sender] */\n      0x00\n        /* \"wallets.sol\":650:660  msg.sender */\n      caller\n        /* \"wallets.sol\":640:661  allowance[msg.sender] */\n      0xffffffffffffffffffffffffffffffffffffffff\n      and\n      0xffffffffffffffffffffffffffffffffffffffff\n      and\n      dup2\n      mstore\n      0x20\n      add\n      swap1\n      dup2\n      mstore\n      0x20\n      add\n      0x00\n      keccak256\n      sload\n        /* \"wallets.sol\":629:636  _amount */\n      dup2\n        /* \"wallets.sol\":629:661  _amount <= allowance[msg.sender] */\n      gt\n      iszero\n        /* \"wallets.sol\":604:661  msg.sender == owner() || _amount <= allowance[msg.sender] */\n    tag_53:\n        /* \"wallets.sol\":596:678  require(msg.sender == owner() || _amount <= allowance[msg.sender] , \"Not Allowed\") */\n      tag_54\n      jumpi\n      mload(0x40)\n      0x08c379a000000000000000000000000000000000000000000000000000000000\n      dup2\n      mstore\n      0x04\n      add\n      tag_55\n      swap1\n      tag_56\n      jump\t// in\n    tag_55:\n      mload(0x40)\n      dup1\n      swap2\n      sub\n      swap1\n      revert\n    tag_54:\n        /* \"wallets.sol\":1350:1371  address(this).balance */\n      selfbalance\n        /* \"wallets.sol\":1339:1346  _amount */\n      dup3\n        /* \"wallets.sol\":1339:1371  _amount <= address(this).balance */\n      gt\n      iszero\n        /* \"wallets.sol\":1331:1393  require(_amount <= address(this).balance , \"Not enough Funds\") */\n      tag_58\n      jumpi\n      mload(0x40)\n      0x08c379a000000000000000000000000000000000000000000000000000000000\n      dup2\n      mstore\n      0x04\n      add\n      tag_59\n      swap1\n      tag_60\n      jump\t// in\n    tag_59:\n      mload(0x40)\n      dup1\n      swap2\n      sub\n      swap1\n      revert\n    tag_58:\n        /* \"wallets.sol\":1422:1429  owner() */\n      tag_61\n        /* \"wallets.sol\":1422:1427  owner */\n      tag_22\n        /* \"wallets.sol\":1422:1429  owner() */\n      jump\t// in\n    tag_61:\n        /* \"wallets.sol\":1408:1429  msg.sender == owner() */\n      0xffffffffffffffffffffffffffffffffffffffff\n      and\n        /* \"wallets.sol\":1408:1418  msg.sender */\n      caller\n        /* \"wallets.sol\":1408:1429  msg.sender == owner() */\n      0xffffffffffffffffffffffffffffffffffffffff\n      and\n      eq\n        /* \"wallets.sol\":1403:1492  if(!(msg.sender == owner())){... */\n      tag_62\n      jumpi\n        /* \"wallets.sol\":1445:1481  reduceAllowance(msg.sender, _amount) */\n      tag_63\n        /* \"wallets.sol\":1461:1471  msg.sender */\n      caller\n        /* \"wallets.sol\":1473:1480  _amount */\n      dup4\n        /* \"wallets.sol\":1445:1460  reduceAllowance */\n      tag_64\n        /* \"wallets.sol\":1445:1481  reduceAllowance(msg.sender, _amount) */\n      jump\t// in\n    tag_63:\n        /* \"wallets.sol\":1403:1492  if(!(msg.sender == owner())){... */\n    tag_62:\n        /* \"wallets.sol\":1521:1531  msg.sender */\n      caller\n        /* \"wallets.sol\":1506:1541  moneyWithdrawn(msg.sender, _amount) */\n      0xffffffffffffffffffffffffffffffffffffffff\n      and\n      0x630898e2c2f457e1126e20e444ed2807734fc741f763c11e28d5777781c6928a\n        /* \"wallets.sol\":1533:1540  _amount */\n      dup4\n        /* \"wallets.sol\":1506:1541  moneyWithdrawn(msg.sender, _amount) */\n      mload(0x40)\n      tag_65\n      swap2\n      swap1\n      tag_16\n      jump\t// in\n    tag_65:\n      mload(0x40)\n      dup1\n      swap2\n      sub\n      swap1\n      log2\n        /* \"wallets.sol\":1551:1554  _to */\n      dup3\n        /* \"wallets.sol\":1551:1563  _to.transfer */\n      0xffffffffffffffffffffffffffffffffffffffff\n      and\n        /* \"wallets.sol\":1551:1572  _to.transfer(_amount) */\n      0x08fc\n        /* \"wallets.sol\":1564:1571  _amount */\n      dup4\n        /* \"wallets.sol\":1551:1572  _to.transfer(_amount) */\n      swap1\n      dup2\n      iszero\n      mul\n      swap1\n      mload(0x40)\n      0x00\n      mload(0x40)\n      dup1\n      dup4\n      sub\n      dup2\n      dup6\n      dup9\n      dup9\n      call\n      swap4\n      pop\n      pop\n      pop\n      pop\n      iszero\n      dup1\n      iszero\n      tag_67\n      jumpi\n      returndatasize\n      0x00\n      dup1\n      returndatacopy\n      revert(0x00, returndatasize)\n    tag_67:\n      pop\n        /* \"wallets.sol\":1232:1579  function withdrawMoney(address payable _to, uint _amount) public ownerOrAllowed(_amount) {... */\n      pop\n      pop\n      pop\n      jump\t// out\n        /* \"https://github.com/OpenZeppelin/openzeppelin-contracts/blob/master/contracts/access/Ownable.sol\":2081:2279  function transferOwnership(address newOwner) public virtual onlyOwner {... */\n    tag_35:\n        /* \"https://github.com/OpenZeppelin/openzeppelin-contracts/blob/master/contracts/access/Ownable.sol\":1094:1107  _checkOwner() */\n      tag_69\n        /* \"https://github.com/OpenZeppelin/openzeppelin-contracts/blob/master/contracts/access/Ownable.sol\":1094:1105  _checkOwner */\n      tag_43\n        /* \"https://github.com/OpenZeppelin/openzeppelin-contracts/blob/master/contracts/access/Ownable.sol\":1094:1107  _checkOwner() */\n      jump\t// in\n    tag_69:\n        /* \"https://github.com/OpenZeppelin/openzeppelin-contracts/blob/master/contracts/access/Ownable.sol\":2189:2190  0 */\n      0x00\n        /* \"https://github.com/OpenZeppelin/openzeppelin-contracts/blob/master/contracts/access/Ownable.sol\":2169:2191  newOwner != address(0) */\n      0xffffffffffffffffffffffffffffffffffffffff\n      and\n        /* \"https://github.com/OpenZeppelin/openzeppelin-contracts/blob/master/contracts/access/Ownable.sol\":2169:2177  newOwner */\n      dup2\n        /* \"https://github.com/OpenZeppelin/openzeppelin-contracts/blob/master/contracts/access/Ownable.sol\":2169:2191  newOwner != address(0) */\n      0xffffffffffffffffffffffffffffffffffffffff\n      and\n      sub\n        /* \"https://github.com/OpenZeppelin/openzeppelin-contracts/blob/master/contracts/access/Ownable.sol\":2161:2234  require(newOwner != address(0), \"Ownable: new owner is the zero address\") */\n      tag_71\n      jumpi\n      mload(0x40)\n      0x08c379a000000000000000000000000000000000000000000000000000000000\n      dup2\n      mstore\n      0x04\n      add\n      tag_72\n      swap1\n      tag_73\n      jump\t// in\n    tag_72:\n      mload(0x40)\n      dup1\n      swap2\n      sub\n      swap1\n      revert\n    tag_71:\n        /* \"https://github.com/OpenZeppelin/openzeppelin-contracts/blob/master/contracts/access/Ownable.sol\":2244:2272  _transferOwnership(newOwner) */\n      tag_74\n        /* \"https://github.com/OpenZeppelin/openzeppelin-contracts/blob/master/contracts/access/Ownable.sol\":2263:2271  newOwner */\n      dup2\n        /* \"https://github.com/OpenZeppelin/openzeppelin-contracts/blob/master/contracts/access/Ownable.sol\":2244:2262  _transferOwnership */\n      tag_46\n        /* \"https://github.com/OpenZeppelin/openzeppelin-contracts/blob/master/contracts/access/Ownable.sol\":2244:2272  _transferOwnership(newOwner) */\n      jump\t// in\n    tag_74:\n        /* \"https://github.com/OpenZeppelin/openzeppelin-contracts/blob/master/contracts/access/Ownable.sol\":2081:2279  function transferOwnership(address newOwner) public virtual onlyOwner {... */\n      pop\n      jump\t// out\n        /* \"wallets.sol\":707:894  function addAllowance(address _who , uint _amount) public onlyOwner {... */\n    tag_40:\n        /* \"https://github.com/OpenZeppelin/openzeppelin-contracts/blob/master/contracts/access/Ownable.sol\":1094:1107  _checkOwner() */\n      tag_76\n        /* \"https://github.com/OpenZeppelin/openzeppelin-contracts/blob/master/contracts/access/Ownable.sol\":1094:1105  _checkOwner */\n      tag_43\n        /* \"https://github.com/OpenZeppelin/openzeppelin-contracts/blob/master/contracts/access/Ownable.sol\":1094:1107  _checkOwner() */\n      jump\t// in\n    tag_76:\n        /* \"wallets.sol\":813:823  msg.sender */\n      caller\n        /* \"wallets.sol\":790:852  AllowanceChanged(_who, msg.sender , allowance[_who],  _amount) */\n      0xffffffffffffffffffffffffffffffffffffffff\n      and\n        /* \"wallets.sol\":807:811  _who */\n      dup3\n        /* \"wallets.sol\":790:852  AllowanceChanged(_who, msg.sender , allowance[_who],  _amount) */\n      0xffffffffffffffffffffffffffffffffffffffff\n      and\n      0x3691d1a86d99355e52b689ca70a7bdf6d80763237a6aa06e5fa43964eac7244b\n        /* \"wallets.sol\":826:835  allowance */\n      0x01\n        /* \"wallets.sol\":826:841  allowance[_who] */\n      0x00\n        /* \"wallets.sol\":836:840  _who */\n      dup7\n        /* \"wallets.sol\":826:841  allowance[_who] */\n      0xffffffffffffffffffffffffffffffffffffffff\n      and\n      0xffffffffffffffffffffffffffffffffffffffff\n      and\n      dup2\n      mstore\n      0x20\n      add\n      swap1\n      dup2\n      mstore\n      0x20\n      add\n      0x00\n      keccak256\n      sload\n        /* \"wallets.sol\":844:851  _amount */\n      dup5\n        /* \"wallets.sol\":790:852  AllowanceChanged(_who, msg.sender , allowance[_who],  _amount) */\n      mload(0x40)\n      tag_78\n      swap3\n      swap2\n      swap1\n      tag_50\n      jump\t// in\n    tag_78:\n      mload(0x40)\n      dup1\n      swap2\n      sub\n      swap1\n      log3\n        /* \"wallets.sol\":880:887  _amount */\n      dup1\n        /* \"wallets.sol\":862:871  allowance */\n      0x01\n        /* \"wallets.sol\":862:877  allowance[_who] */\n      0x00\n        /* \"wallets.sol\":872:876  _who */\n      dup5\n        /* \"wallets.sol\":862:877  allowance[_who] */\n      0xffffffffffffffffffffffffffffffffffffffff\n      and\n      0xffffffffffffffffffffffffffffffffffffffff\n      and\n      dup2\n      mstore\n      0x20\n      add\n      swap1\n      dup2\n      mstore\n      0x20\n      add\n      0x00\n      keccak256\n        /* \"wallets.sol\":862:887  allowance[_who] = _amount */\n      dup2\n      swap1\n      sstore\n      pop\n        /* \"wallets.sol\":707:894  function addAllowance(address _who , uint _amount) public onlyOwner {... */\n      pop\n      pop\n      jump\t// out\n        /* \"https://github.com/OpenZeppelin/openzeppelin-contracts/blob/master/contracts/access/Ownable.sol\":1359:1489  function _checkOwner() internal view virtual {... */\n    tag_43:\n        /* \"https://github.com/OpenZeppelin/openzeppelin-contracts/blob/master/contracts/access/Ownable.sol\":1433:1445  _msgSender() */\n      tag_80\n        /* \"https://github.com/OpenZeppelin/openzeppelin-contracts/blob/master/contracts/access/Ownable.sol\":1433:1443  _msgSender */\n      tag_81\n        /* \"https://github.com/OpenZeppelin/openzeppelin-contracts/blob/master/contracts/access/Ownable.sol\":1433:1445  _msgSender() */\n      jump\t// in\n    tag_80:\n        /* \"https://github.com/OpenZeppelin/openzeppelin-contracts/blob/master/contracts/access/Ownable.sol\":1422:1445  owner() == _msgSender() */\n      0xffffffffffffffffffffffffffffffffffffffff\n      and\n        /* \"https://github.com/OpenZeppelin/openzeppelin-contracts/blob/master/contracts/access/Ownable.sol\":1422:1429  owner() */\n      tag_82\n        /* \"https://github.com/OpenZeppelin/openzeppelin-contracts/blob/master/contracts/access/Ownable.sol\":1422:1427  owner */\n      tag_22\n        /* \"https://github.com/OpenZeppelin/openzeppelin-contracts/blob/master/contracts/access/Ownable.sol\":1422:1429  owner() */\n      jump\t// in\n    tag_82:\n        /* \"https://github.com/OpenZeppelin/openzeppelin-contracts/blob/master/contracts/access/Ownable.sol\":1422:1445  owner() == _msgSender() */\n      0xffffffffffffffffffffffffffffffffffffffff\n      and\n      eq\n        /* \"https://github.com/OpenZeppelin/openzeppelin-contracts/blob/master/contracts/access/Ownable.sol\":1414:1482  require(owner() == _msgSender(), \"Ownable: caller is not the owner\") */\n      tag_83\n      jumpi\n      mload(0x40)\n      0x08c379a000000000000000000000000000000000000000000000000000000000\n      dup2\n      mstore\n      0x04\n      add\n      tag_84\n      swap1\n      tag_85\n      jump\t// in\n    tag_84:\n      mload(0x40)\n      dup1\n      swap2\n      sub\n      swap1\n      revert\n    tag_83:\n        /* \"https://github.com/OpenZeppelin/openzeppelin-contracts/blob/master/contracts/access/Ownable.sol\":1359:1489  function _checkOwner() internal view virtual {... */\n      jump\t// out\n        /* \"https://github.com/OpenZeppelin/openzeppelin-contracts/blob/master/contracts/access/Ownable.sol\":2433:2620  function _transferOwnership(address newOwner) internal virtual {... */\n    tag_46:\n        /* \"https://github.com/OpenZeppelin/openzeppelin-contracts/blob/master/contracts/access/Ownable.sol\":2506:2522  address oldOwner */\n      0x00\n        /* \"https://github.com/OpenZeppelin/openzeppelin-contracts/blob/master/contracts/access/Ownable.sol\":2525:2531  _owner */\n      dup1\n      0x00\n      swap1\n      sload\n      swap1\n      0x0100\n      exp\n      swap1\n      div\n      0xffffffffffffffffffffffffffffffffffffffff\n      and\n        /* \"https://github.com/OpenZeppelin/openzeppelin-contracts/blob/master/contracts/access/Ownable.sol\":2506:2531  address oldOwner = _owner */\n      swap1\n      pop\n        /* \"https://github.com/OpenZeppelin/openzeppelin-contracts/blob/master/contracts/access/Ownable.sol\":2550:2558  newOwner */\n      dup2\n        /* \"https://github.com/OpenZeppelin/openzeppelin-contracts/blob/master/contracts/access/Ownable.sol\":2541:2547  _owner */\n      0x00\n      dup1\n        /* \"https://github.com/OpenZeppelin/openzeppelin-contracts/blob/master/contracts/access/Ownable.sol\":2541:2558  _owner = newOwner */\n      0x0100\n      exp\n      dup2\n      sload\n      dup2\n      0xffffffffffffffffffffffffffffffffffffffff\n      mul\n      not\n      and\n      swap1\n      dup4\n      0xffffffffffffffffffffffffffffffffffffffff\n      and\n      mul\n      or\n      swap1\n      sstore\n      pop\n        /* \"https://github.com/OpenZeppelin/openzeppelin-contracts/blob/master/contracts/access/Ownable.sol\":2604:2612  newOwner */\n      dup2\n        /* \"https://github.com/OpenZeppelin/openzeppelin-contracts/blob/master/contracts/access/Ownable.sol\":2573:2613  OwnershipTransferred(oldOwner, newOwner) */\n      0xffffffffffffffffffffffffffffffffffffffff\n      and\n        /* \"https://github.com/OpenZeppelin/openzeppelin-contracts/blob/master/contracts/access/Ownable.sol\":2594:2602  oldOwner */\n      dup2\n        /* \"https://github.com/OpenZeppelin/openzeppelin-contracts/blob/master/contracts/access/Ownable.sol\":2573:2613  OwnershipTransferred(oldOwner, newOwner) */\n      0xffffffffffffffffffffffffffffffffffffffff\n      and\n      0x8be0079c531659141344cd1fd0a4f28419497f9722a3daafe3b4186f6b6457e0\n      mload(0x40)\n      mload(0x40)\n      dup1\n      swap2\n      sub\n      swap1\n      log3\n        /* \"https://github.com/OpenZeppelin/openzeppelin-contracts/blob/master/contracts/access/Ownable.sol\":2496:2620  {... */\n      pop\n        /* \"https://github.com/OpenZeppelin/openzeppelin-contracts/blob/master/contracts/access/Ownable.sol\":2433:2620  function _transferOwnership(address newOwner) internal virtual {... */\n      pop\n      jump\t// out\n        /* \"wallets.sol\":342:543  function reduceAllowance(address _who , uint _amount) internal{... */\n    tag_64:\n        /* \"wallets.sol\":443:453  msg.sender */\n      caller\n        /* \"wallets.sol\":419:500  AllowanceChanged(_who , msg.sender , allowance[_who] , allowance[_who] - _amount) */\n      0xffffffffffffffffffffffffffffffffffffffff\n      and\n        /* \"wallets.sol\":436:440  _who */\n      dup3\n        /* \"wallets.sol\":419:500  AllowanceChanged(_who , msg.sender , allowance[_who] , allowance[_who] - _amount) */\n      0xffffffffffffffffffffffffffffffffffffffff\n      and\n      0x3691d1a86d99355e52b689ca70a7bdf6d80763237a6aa06e5fa43964eac7244b\n        /* \"wallets.sol\":456:465  allowance */\n      0x01\n        /* \"wallets.sol\":456:471  allowance[_who] */\n      0x00\n        /* \"wallets.sol\":466:470  _who */\n      dup7\n        /* \"wallets.sol\":456:471  allowance[_who] */\n      0xffffffffffffffffffffffffffffffffffffffff\n      and\n      0xffffffffffffffffffffffffffffffffffffffff\n      and\n      dup2\n      mstore\n      0x20\n      add\n      swap1\n      dup2\n      mstore\n      0x20\n      add\n      0x00\n      keccak256\n      sload\n        /* \"wallets.sol\":492:499  _amount */\n      dup5\n        /* \"wallets.sol\":474:483  allowance */\n      0x01\n        /* \"wallets.sol\":474:489  allowance[_who] */\n      0x00\n        /* \"wallets.sol\":484:488  _who */\n      dup9\n        /* \"wallets.sol\":474:489  allowance[_who] */\n      0xffffffffffffffffffffffffffffffffffffffff\n      and\n      0xffffffffffffffffffffffffffffffffffffffff\n      and\n      dup2\n      mstore\n      0x20\n      add\n      swap1\n      dup2\n      mstore\n      0x20\n      add\n      0x00\n      keccak256\n      sload\n        /* \"wallets.sol\":474:499  allowance[_who] - _amount */\n      tag_88\n      swap2\n      swap1\n      tag_89\n      jump\t// in\n    tag_88:\n        /* \"wallets.sol\":419:500  AllowanceChanged(_who , msg.sender , allowance[_who] , allowance[_who] - _amount) */\n      mload(0x40)\n      tag_90\n      swap3\n      swap2\n      swap1\n      tag_50\n      jump\t// in\n    tag_90:\n      mload(0x40)\n      dup1\n      swap2\n      sub\n      swap1\n      log3\n        /* \"wallets.sol\":529:536  _amount */\n      dup1\n        /* \"wallets.sol\":510:519  allowance */\n      0x01\n        /* \"wallets.sol\":510:525  allowance[_who] */\n      0x00\n        /* \"wallets.sol\":520:524  _who */\n      dup5\n        /* \"wallets.sol\":510:525  allowance[_who] */\n      0xffffffffffffffffffffffffffffffffffffffff\n      and\n      0xffffffffffffffffffffffffffffffffffffffff\n      and\n      dup2\n      mstore\n      0x20\n      add\n      swap1\n      dup2\n      mstore\n      0x20\n      add\n      0x00\n      keccak256\n      0x00\n        /* \"wallets.sol\":510:536  allowance[_who] -= _amount */\n      dup3\n      dup3\n      sload\n      tag_91\n      swap2\n      swap1\n      tag_89\n      jump\t// in\n    tag_91:\n      swap3\n      pop\n      pop\n      dup2\n      swap1\n      sstore\n      pop\n        /* \"wallets.sol\":342:543  function reduceAllowance(address _who , uint _amount) internal{... */\n      pop\n      pop\n      jump\t// out\n        /* \"https://github.com/OpenZeppelin/openzeppelin-contracts/blob/master/contracts/utils/Context.sol\":640:736  function _msgSender() internal view virtual returns (address) {... */\n    tag_81:\n        /* \"https://github.com/OpenZeppelin/openzeppelin-contracts/blob/master/contracts/utils/Context.sol\":693:700  address */\n      0x00\n        /* \"https://github.com/OpenZeppelin/openzeppelin-contracts/blob/master/contracts/utils/Context.sol\":719:729  msg.sender */\n      caller\n        /* \"https://github.com/OpenZeppelin/openzeppelin-contracts/blob/master/contracts/utils/Context.sol\":712:729  return msg.sender */\n      swap1\n      pop\n        /* \"https://github.com/OpenZeppelin/openzeppelin-contracts/blob/master/contracts/utils/Context.sol\":640:736  function _msgSender() internal view virtual returns (address) {... */\n      swap1\n      jump\t// out\n        /* \"#utility.yul\":88:205   */\n    tag_94:\n        /* \"#utility.yul\":197:198   */\n      0x00\n        /* \"#utility.yul\":194:195   */\n      dup1\n        /* \"#utility.yul\":187:199   */\n      revert\n        /* \"#utility.yul\":334:460   */\n    tag_96:\n        /* \"#utility.yul\":371:378   */\n      0x00\n        /* \"#utility.yul\":411:453   */\n      0xffffffffffffffffffffffffffffffffffffffff\n        /* \"#utility.yul\":404:409   */\n      dup3\n        /* \"#utility.yul\":400:454   */\n      and\n        /* \"#utility.yul\":389:454   */\n      swap1\n      pop\n        /* \"#utility.yul\":334:460   */\n      swap2\n      swap1\n      pop\n      jump\t// out\n        /* \"#utility.yul\":466:562   */\n    tag_97:\n        /* \"#utility.yul\":503:510   */\n      0x00\n        /* \"#utility.yul\":532:556   */\n      tag_124\n        /* \"#utility.yul\":550:555   */\n      dup3\n        /* \"#utility.yul\":532:556   */\n      tag_96\n      jump\t// in\n    tag_124:\n        /* \"#utility.yul\":521:556   */\n      swap1\n      pop\n        /* \"#utility.yul\":466:562   */\n      swap2\n      swap1\n      pop\n      jump\t// out\n        /* \"#utility.yul\":568:690   */\n    tag_98:\n        /* \"#utility.yul\":641:665   */\n      tag_126\n        /* \"#utility.yul\":659:664   */\n      dup2\n        /* \"#utility.yul\":641:665   */\n      tag_97\n      jump\t// in\n    tag_126:\n        /* \"#utility.yul\":634:639   */\n      dup2\n        /* \"#utility.yul\":631:666   */\n      eq\n        /* \"#utility.yul\":621:684   */\n      tag_127\n      jumpi\n        /* \"#utility.yul\":680:681   */\n      0x00\n        /* \"#utility.yul\":677:678   */\n      dup1\n        /* \"#utility.yul\":670:682   */\n      revert\n        /* \"#utility.yul\":621:684   */\n    tag_127:\n        /* \"#utility.yul\":568:690   */\n      pop\n      jump\t// out\n        /* \"#utility.yul\":696:835   */\n    tag_99:\n        /* \"#utility.yul\":742:747   */\n      0x00\n        /* \"#utility.yul\":780:786   */\n      dup2\n        /* \"#utility.yul\":767:787   */\n      calldataload\n        /* \"#utility.yul\":758:787   */\n      swap1\n      pop\n        /* \"#utility.yul\":796:829   */\n      tag_129\n        /* \"#utility.yul\":823:828   */\n      dup2\n        /* \"#utility.yul\":796:829   */\n      tag_98\n      jump\t// in\n    tag_129:\n        /* \"#utility.yul\":696:835   */\n      swap3\n      swap2\n      pop\n      pop\n      jump\t// out\n        /* \"#utility.yul\":841:1170   */\n    tag_13:\n        /* \"#utility.yul\":900:906   */\n      0x00\n        /* \"#utility.yul\":949:951   */\n      0x20\n        /* \"#utility.yul\":937:946   */\n      dup3\n        /* \"#utility.yul\":928:935   */\n      dup5\n        /* \"#utility.yul\":924:947   */\n      sub\n        /* \"#utility.yul\":920:952   */\n      slt\n        /* \"#utility.yul\":917:1036   */\n      iszero\n      tag_131\n      jumpi\n        /* \"#utility.yul\":955:1034   */\n      tag_132\n      tag_94\n      jump\t// in\n    tag_132:\n        /* \"#utility.yul\":917:1036   */\n    tag_131:\n        /* \"#utility.yul\":1075:1076   */\n      0x00\n        /* \"#utility.yul\":1100:1153   */\n      tag_133\n        /* \"#utility.yul\":1145:1152   */\n      dup5\n        /* \"#utility.yul\":1136:1142   */\n      dup3\n        /* \"#utility.yul\":1125:1134   */\n      dup6\n        /* \"#utility.yul\":1121:1143   */\n      add\n        /* \"#utility.yul\":1100:1153   */\n      tag_99\n      jump\t// in\n    tag_133:\n        /* \"#utility.yul\":1090:1153   */\n      swap2\n      pop\n        /* \"#utility.yul\":1046:1163   */\n      pop\n        /* \"#utility.yul\":841:1170   */\n      swap3\n      swap2\n      pop\n      pop\n      jump\t// out\n        /* \"#utility.yul\":1176:1253   */\n    tag_100:\n        /* \"#utility.yul\":1213:1220   */\n      0x00\n        /* \"#utility.yul\":1242:1247   */\n      dup2\n        /* \"#utility.yul\":1231:1247   */\n      swap1\n      pop\n        /* \"#utility.yul\":1176:1253   */\n      swap2\n      swap1\n      pop\n      jump\t// out\n        /* \"#utility.yul\":1259:1377   */\n    tag_101:\n        /* \"#utility.yul\":1346:1370   */\n      tag_136\n        /* \"#utility.yul\":1364:1369   */\n      dup2\n        /* \"#utility.yul\":1346:1370   */\n      tag_100\n      jump\t// in\n    tag_136:\n        /* \"#utility.yul\":1341:1344   */\n      dup3\n        /* \"#utility.yul\":1334:1371   */\n      mstore\n        /* \"#utility.yul\":1259:1377   */\n      pop\n      pop\n      jump\t// out\n        /* \"#utility.yul\":1383:1605   */\n    tag_16:\n        /* \"#utility.yul\":1476:1480   */\n      0x00\n        /* \"#utility.yul\":1514:1516   */\n      0x20\n        /* \"#utility.yul\":1503:1512   */\n      dup3\n        /* \"#utility.yul\":1499:1517   */\n      add\n        /* \"#utility.yul\":1491:1517   */\n      swap1\n      pop\n        /* \"#utility.yul\":1527:1598   */\n      tag_138\n        /* \"#utility.yul\":1595:1596   */\n      0x00\n        /* \"#utility.yul\":1584:1593   */\n      dup4\n        /* \"#utility.yul\":1580:1597   */\n      add\n        /* \"#utility.yul\":1571:1577   */\n      dup5\n        /* \"#utility.yul\":1527:1598   */\n      tag_101\n      jump\t// in\n    tag_138:\n        /* \"#utility.yul\":1383:1605   */\n      swap3\n      swap2\n      pop\n      pop\n      jump\t// out\n        /* \"#utility.yul\":1611:1729   */\n    tag_102:\n        /* \"#utility.yul\":1698:1722   */\n      tag_140\n        /* \"#utility.yul\":1716:1721   */\n      dup2\n        /* \"#utility.yul\":1698:1722   */\n      tag_97\n      jump\t// in\n    tag_140:\n        /* \"#utility.yul\":1693:1696   */\n      dup3\n        /* \"#utility.yul\":1686:1723   */\n      mstore\n        /* \"#utility.yul\":1611:1729   */\n      pop\n      pop\n      jump\t// out\n        /* \"#utility.yul\":1735:1957   */\n    tag_24:\n        /* \"#utility.yul\":1828:1832   */\n      0x00\n        /* \"#utility.yul\":1866:1868   */\n      0x20\n        /* \"#utility.yul\":1855:1864   */\n      dup3\n        /* \"#utility.yul\":1851:1869   */\n      add\n        /* \"#utility.yul\":1843:1869   */\n      swap1\n      pop\n        /* \"#utility.yul\":1879:1950   */\n      tag_142\n        /* \"#utility.yul\":1947:1948   */\n      0x00\n        /* \"#utility.yul\":1936:1945   */\n      dup4\n        /* \"#utility.yul\":1932:1949   */\n      add\n        /* \"#utility.yul\":1923:1929   */\n      dup5\n        /* \"#utility.yul\":1879:1950   */\n      tag_102\n      jump\t// in\n    tag_142:\n        /* \"#utility.yul\":1735:1957   */\n      swap3\n      swap2\n      pop\n      pop\n      jump\t// out\n        /* \"#utility.yul\":1963:2067   */\n    tag_103:\n        /* \"#utility.yul\":2008:2015   */\n      0x00\n        /* \"#utility.yul\":2037:2061   */\n      tag_144\n        /* \"#utility.yul\":2055:2060   */\n      dup3\n        /* \"#utility.yul\":2037:2061   */\n      tag_96\n      jump\t// in\n    tag_144:\n        /* \"#utility.yul\":2026:2061   */\n      swap1\n      pop\n        /* \"#utility.yul\":1963:2067   */\n      swap2\n      swap1\n      pop\n      jump\t// out\n        /* \"#utility.yul\":2073:2211   */\n    tag_104:\n        /* \"#utility.yul\":2154:2186   */\n      tag_146\n        /* \"#utility.yul\":2180:2185   */\n      dup2\n        /* \"#utility.yul\":2154:2186   */\n      tag_103\n      jump\t// in\n    tag_146:\n        /* \"#utility.yul\":2147:2152   */\n      dup2\n        /* \"#utility.yul\":2144:2187   */\n      eq\n        /* \"#utility.yul\":2134:2205   */\n      tag_147\n      jumpi\n        /* \"#utility.yul\":2201:2202   */\n      0x00\n        /* \"#utility.yul\":2198:2199   */\n      dup1\n        /* \"#utility.yul\":2191:2203   */\n      revert\n        /* \"#utility.yul\":2134:2205   */\n    tag_147:\n        /* \"#utility.yul\":2073:2211   */\n      pop\n      jump\t// out\n        /* \"#utility.yul\":2217:2372   */\n    tag_105:\n        /* \"#utility.yul\":2271:2276   */\n      0x00\n        /* \"#utility.yul\":2309:2315   */\n      dup2\n        /* \"#utility.yul\":2296:2316   */\n      calldataload\n        /* \"#utility.yul\":2287:2316   */\n      swap1\n      pop\n        /* \"#utility.yul\":2325:2366   */\n      tag_149\n        /* \"#utility.yul\":2360:2365   */\n      dup2\n        /* \"#utility.yul\":2325:2366   */\n      tag_104\n      jump\t// in\n    tag_149:\n        /* \"#utility.yul\":2217:2372   */\n      swap3\n      swap2\n      pop\n      pop\n      jump\t// out\n        /* \"#utility.yul\":2378:2500   */\n    tag_106:\n        /* \"#utility.yul\":2451:2475   */\n      tag_151\n        /* \"#utility.yul\":2469:2474   */\n      dup2\n        /* \"#utility.yul\":2451:2475   */\n      tag_100\n      jump\t// in\n    tag_151:\n        /* \"#utility.yul\":2444:2449   */\n      dup2\n        /* \"#utility.yul\":2441:2476   */\n      eq\n        /* \"#utility.yul\":2431:2494   */\n      tag_152\n      jumpi\n        /* \"#utility.yul\":2490:2491   */\n      0x00\n        /* \"#utility.yul\":2487:2488   */\n      dup1\n        /* \"#utility.yul\":2480:2492   */\n      revert\n        /* \"#utility.yul\":2431:2494   */\n    tag_152:\n        /* \"#utility.yul\":2378:2500   */\n      pop\n      jump\t// out\n        /* \"#utility.yul\":2506:2645   */\n    tag_107:\n        /* \"#utility.yul\":2552:2557   */\n      0x00\n        /* \"#utility.yul\":2590:2596   */\n      dup2\n        /* \"#utility.yul\":2577:2597   */\n      calldataload\n        /* \"#utility.yul\":2568:2597   */\n      swap1\n      pop\n        /* \"#utility.yul\":2606:2639   */\n      tag_154\n        /* \"#utility.yul\":2633:2638   */\n      dup2\n        /* \"#utility.yul\":2606:2639   */\n      tag_106\n      jump\t// in\n    tag_154:\n        /* \"#utility.yul\":2506:2645   */\n      swap3\n      swap2\n      pop\n      pop\n      jump\t// out\n        /* \"#utility.yul\":2651:3141   */\n    tag_30:\n        /* \"#utility.yul\":2727:2733   */\n      0x00\n        /* \"#utility.yul\":2735:2741   */\n      dup1\n        /* \"#utility.yul\":2784:2786   */\n      0x40\n        /* \"#utility.yul\":2772:2781   */\n      dup4\n        /* \"#utility.yul\":2763:2770   */\n      dup6\n        /* \"#utility.yul\":2759:2782   */\n      sub\n        /* \"#utility.yul\":2755:2787   */\n      slt\n        /* \"#utility.yul\":2752:2871   */\n      iszero\n      tag_156\n      jumpi\n        /* \"#utility.yul\":2790:2869   */\n      tag_157\n      tag_94\n      jump\t// in\n    tag_157:\n        /* \"#utility.yul\":2752:2871   */\n    tag_156:\n        /* \"#utility.yul\":2910:2911   */\n      0x00\n        /* \"#utility.yul\":2935:2996   */\n      tag_158\n        /* \"#utility.yul\":2988:2995   */\n      dup6\n        /* \"#utility.yul\":2979:2985   */\n      dup3\n        /* \"#utility.yul\":2968:2977   */\n      dup7\n        /* \"#utility.yul\":2964:2986   */\n      add\n        /* \"#utility.yul\":2935:2996   */\n      tag_105\n      jump\t// in\n    tag_158:\n        /* \"#utility.yul\":2925:2996   */\n      swap3\n      pop\n        /* \"#utility.yul\":2881:3006   */\n      pop\n        /* \"#utility.yul\":3045:3047   */\n      0x20\n        /* \"#utility.yul\":3071:3124   */\n      tag_159\n        /* \"#utility.yul\":3116:3123   */\n      dup6\n        /* \"#utility.yul\":3107:3113   */\n      dup3\n        /* \"#utility.yul\":3096:3105   */\n      dup7\n        /* \"#utility.yul\":3092:3114   */\n      add\n        /* \"#utility.yul\":3071:3124   */\n      tag_107\n      jump\t// in\n    tag_159:\n        /* \"#utility.yul\":3061:3124   */\n      swap2\n      pop\n        /* \"#utility.yul\":3016:3134   */\n      pop\n        /* \"#utility.yul\":2651:3141   */\n      swap3\n      pop\n      swap3\n      swap1\n      pop\n      jump\t// out\n        /* \"#utility.yul\":3147:3621   */\n    tag_39:\n        /* \"#utility.yul\":3215:3221   */\n      0x00\n        /* \"#utility.yul\":3223:3229   */\n      dup1\n        /* \"#utility.yul\":3272:3274   */\n      0x40\n        /* \"#utility.yul\":3260:3269   */\n      dup4\n        /* \"#utility.yul\":3251:3258   */\n      dup6\n        /* \"#utility.yul\":3247:3270   */\n      sub\n        /* \"#utility.yul\":3243:3275   */\n      slt\n        /* \"#utility.yul\":3240:3359   */\n      iszero\n      tag_161\n      jumpi\n        /* \"#utility.yul\":3278:3357   */\n      tag_162\n      tag_94\n      jump\t// in\n    tag_162:\n        /* \"#utility.yul\":3240:3359   */\n    tag_161:\n        /* \"#utility.yul\":3398:3399   */\n      0x00\n        /* \"#utility.yul\":3423:3476   */\n      tag_163\n        /* \"#utility.yul\":3468:3475   */\n      dup6\n        /* \"#utility.yul\":3459:3465   */\n      dup3\n        /* \"#utility.yul\":3448:3457   */\n      dup7\n        /* \"#utility.yul\":3444:3466   */\n      add\n        /* \"#utility.yul\":3423:3476   */\n      tag_99\n      jump\t// in\n    tag_163:\n        /* \"#utility.yul\":3413:3476   */\n      swap3\n      pop\n        /* \"#utility.yul\":3369:3486   */\n      pop\n        /* \"#utility.yul\":3525:3527   */\n      0x20\n        /* \"#utility.yul\":3551:3604   */\n      tag_164\n        /* \"#utility.yul\":3596:3603   */\n      dup6\n        /* \"#utility.yul\":3587:3593   */\n      dup3\n        /* \"#utility.yul\":3576:3585   */\n      dup7\n        /* \"#utility.yul\":3572:3594   */\n      add\n        /* \"#utility.yul\":3551:3604   */\n      tag_107\n      jump\t// in\n    tag_164:\n        /* \"#utility.yul\":3541:3604   */\n      swap2\n      pop\n        /* \"#utility.yul\":3496:3614   */\n      pop\n        /* \"#utility.yul\":3147:3621   */\n      swap3\n      pop\n      swap3\n      swap1\n      pop\n      jump\t// out\n        /* \"#utility.yul\":3627:3959   */\n    tag_50:\n        /* \"#utility.yul\":3748:3752   */\n      0x00\n        /* \"#utility.yul\":3786:3788   */\n      0x40\n        /* \"#utility.yul\":3775:3784   */\n      dup3\n        /* \"#utility.yul\":3771:3789   */\n      add\n        /* \"#utility.yul\":3763:3789   */\n      swap1\n      pop\n        /* \"#utility.yul\":3799:3870   */\n      tag_166\n        /* \"#utility.yul\":3867:3868   */\n      0x00\n        /* \"#utility.yul\":3856:3865   */\n      dup4\n        /* \"#utility.yul\":3852:3869   */\n      add\n        /* \"#utility.yul\":3843:3849   */\n      dup6\n        /* \"#utility.yul\":3799:3870   */\n      tag_101\n      jump\t// in\n    tag_166:\n        /* \"#utility.yul\":3880:3952   */\n      tag_167\n        /* \"#utility.yul\":3948:3950   */\n      0x20\n        /* \"#utility.yul\":3937:3946   */\n      dup4\n        /* \"#utility.yul\":3933:3951   */\n      add\n        /* \"#utility.yul\":3924:3930   */\n      dup5\n        /* \"#utility.yul\":3880:3952   */\n      tag_101\n      jump\t// in\n    tag_167:\n        /* \"#utility.yul\":3627:3959   */\n      swap4\n      swap3\n      pop\n      pop\n      pop\n      jump\t// out\n        /* \"#utility.yul\":3965:4134   */\n    tag_108:\n        /* \"#utility.yul\":4049:4060   */\n      0x00\n        /* \"#utility.yul\":4083:4089   */\n      dup3\n        /* \"#utility.yul\":4078:4081   */\n      dup3\n        /* \"#utility.yul\":4071:4090   */\n      mstore\n        /* \"#utility.yul\":4123:4127   */\n      0x20\n        /* \"#utility.yul\":4118:4121   */\n      dup3\n        /* \"#utility.yul\":4114:4128   */\n      add\n        /* \"#utility.yul\":4099:4128   */\n      swap1\n      pop\n        /* \"#utility.yul\":3965:4134   */\n      swap3\n      swap2\n      pop\n      pop\n      jump\t// out\n        /* \"#utility.yul\":4140:4301   */\n    tag_109:\n        /* \"#utility.yul\":4280:4293   */\n      0x4e6f7420416c6c6f776564000000000000000000000000000000000000000000\n        /* \"#utility.yul\":4276:4277   */\n      0x00\n        /* \"#utility.yul\":4268:4274   */\n      dup3\n        /* \"#utility.yul\":4264:4278   */\n      add\n        /* \"#utility.yul\":4257:4294   */\n      mstore\n        /* \"#utility.yul\":4140:4301   */\n      pop\n      jump\t// out\n        /* \"#utility.yul\":4307:4673   */\n    tag_110:\n        /* \"#utility.yul\":4449:4452   */\n      0x00\n        /* \"#utility.yul\":4470:4537   */\n      tag_171\n        /* \"#utility.yul\":4534:4536   */\n      0x0b\n        /* \"#utility.yul\":4529:4532   */\n      dup4\n        /* \"#utility.yul\":4470:4537   */\n      tag_108\n      jump\t// in\n    tag_171:\n        /* \"#utility.yul\":4463:4537   */\n      swap2\n      pop\n        /* \"#utility.yul\":4546:4639   */\n      tag_172\n        /* \"#utility.yul\":4635:4638   */\n      dup3\n        /* \"#utility.yul\":4546:4639   */\n      tag_109\n      jump\t// in\n    tag_172:\n        /* \"#utility.yul\":4664:4666   */\n      0x20\n        /* \"#utility.yul\":4659:4662   */\n      dup3\n        /* \"#utility.yul\":4655:4667   */\n      add\n        /* \"#utility.yul\":4648:4667   */\n      swap1\n      pop\n        /* \"#utility.yul\":4307:4673   */\n      swap2\n      swap1\n      pop\n      jump\t// out\n        /* \"#utility.yul\":4679:5098   */\n    tag_56:\n        /* \"#utility.yul\":4845:4849   */\n      0x00\n        /* \"#utility.yul\":4883:4885   */\n      0x20\n        /* \"#utility.yul\":4872:4881   */\n      dup3\n        /* \"#utility.yul\":4868:4886   */\n      add\n        /* \"#utility.yul\":4860:4886   */\n      swap1\n      pop\n        /* \"#utility.yul\":4932:4941   */\n      dup2\n        /* \"#utility.yul\":4926:4930   */\n      dup2\n        /* \"#utility.yul\":4922:4942   */\n      sub\n        /* \"#utility.yul\":4918:4919   */\n      0x00\n        /* \"#utility.yul\":4907:4916   */\n      dup4\n        /* \"#utility.yul\":4903:4920   */\n      add\n        /* \"#utility.yul\":4896:4943   */\n      mstore\n        /* \"#utility.yul\":4960:5091   */\n      tag_174\n        /* \"#utility.yul\":5086:5090   */\n      dup2\n        /* \"#utility.yul\":4960:5091   */\n      tag_110\n      jump\t// in\n    tag_174:\n        /* \"#utility.yul\":4952:5091   */\n      swap1\n      pop\n        /* \"#utility.yul\":4679:5098   */\n      swap2\n      swap1\n      pop\n      jump\t// out\n        /* \"#utility.yul\":5104:5270   */\n    tag_111:\n        /* \"#utility.yul\":5244:5262   */\n      0x4e6f7420656e6f7567682046756e647300000000000000000000000000000000\n        /* \"#utility.yul\":5240:5241   */\n      0x00\n        /* \"#utility.yul\":5232:5238   */\n      dup3\n        /* \"#utility.yul\":5228:5242   */\n      add\n        /* \"#utility.yul\":5221:5263   */\n      mstore\n        /* \"#utility.yul\":5104:5270   */\n      pop\n      jump\t// out\n        /* \"#utility.yul\":5276:5642   */\n    tag_112:\n        /* \"#utility.yul\":5418:5421   */\n      0x00\n        /* \"#utility.yul\":5439:5506   */\n      tag_177\n        /* \"#utility.yul\":5503:5505   */\n      0x10\n        /* \"#utility.yul\":5498:5501   */\n      dup4\n        /* \"#utility.yul\":5439:5506   */\n      tag_108\n      jump\t// in\n    tag_177:\n        /* \"#utility.yul\":5432:5506   */\n      swap2\n      pop\n        /* \"#utility.yul\":5515:5608   */\n      tag_178\n        /* \"#utility.yul\":5604:5607   */\n      dup3\n        /* \"#utility.yul\":5515:5608   */\n      tag_111\n      jump\t// in\n    tag_178:\n        /* \"#utility.yul\":5633:5635   */\n      0x20\n        /* \"#utility.yul\":5628:5631   */\n      dup3\n        /* \"#utility.yul\":5624:5636   */\n      add\n        /* \"#utility.yul\":5617:5636   */\n      swap1\n      pop\n        /* \"#utility.yul\":5276:5642   */\n      swap2\n      swap1\n      pop\n      jump\t// out\n        /* \"#utility.yul\":5648:6067   */\n    tag_60:\n        /* \"#utility.yul\":5814:5818   */\n      0x00\n        /* \"#utility.yul\":5852:5854   */\n      0x20\n        /* \"#utility.yul\":5841:5850   */\n      dup3\n        /* \"#utility.yul\":5837:5855   */\n      add\n        /* \"#utility.yul\":5829:5855   */\n      swap1\n      pop\n        /* \"#utility.yul\":5901:5910   */\n      dup2\n        /* \"#utility.yul\":5895:5899   */\n      dup2\n        /* \"#utility.yul\":5891:5911   */\n      sub\n        /* \"#utility.yul\":5887:5888   */\n      0x00\n        /* \"#utility.yul\":5876:5885   */\n      dup4\n        /* \"#utility.yul\":5872:5889   */\n      add\n        /* \"#utility.yul\":5865:5912   */\n      mstore\n        /* \"#utility.yul\":5929:6060   */\n      tag_180\n        /* \"#utility.yul\":6055:6059   */\n      dup2\n        /* \"#utility.yul\":5929:6060   */\n      tag_112\n      jump\t// in\n    tag_180:\n        /* \"#utility.yul\":5921:6060   */\n      swap1\n      pop\n        /* \"#utility.yul\":5648:6067   */\n      swap2\n      swap1\n      pop\n      jump\t// out\n        /* \"#utility.yul\":6073:6298   */\n    tag_113:\n        /* \"#utility.yul\":6213:6247   */\n      0x4f776e61626c653a206e6577206f776e657220697320746865207a65726f2061\n        /* \"#utility.yul\":6209:6210   */\n      0x00\n        /* \"#utility.yul\":6201:6207   */\n      dup3\n        /* \"#utility.yul\":6197:6211   */\n      add\n        /* \"#utility.yul\":6190:6248   */\n      mstore\n        /* \"#utility.yul\":6282:6290   */\n      0x6464726573730000000000000000000000000000000000000000000000000000\n        /* \"#utility.yul\":6277:6279   */\n      0x20\n        /* \"#utility.yul\":6269:6275   */\n      dup3\n        /* \"#utility.yul\":6265:6280   */\n      add\n        /* \"#utility.yul\":6258:6291   */\n      mstore\n        /* \"#utility.yul\":6073:6298   */\n      pop\n      jump\t// out\n        /* \"#utility.yul\":6304:6670   */\n    tag_114:\n        /* \"#utility.yul\":6446:6449   */\n      0x00\n        /* \"#utility.yul\":6467:6534   */\n      tag_183\n        /* \"#utility.yul\":6531:6533   */\n      0x26\n        /* \"#utility.yul\":6526:6529   */\n      dup4\n        /* \"#utility.yul\":6467:6534   */\n      tag_108\n      jump\t// in\n    tag_183:\n        /* \"#utility.yul\":6460:6534   */\n      swap2\n      pop\n        /* \"#utility.yul\":6543:6636   */\n      tag_184\n        /* \"#utility.yul\":6632:6635   */\n      dup3\n        /* \"#utility.yul\":6543:6636   */\n      tag_113\n      jump\t// in\n    tag_184:\n        /* \"#utility.yul\":6661:6663   */\n      0x40\n        /* \"#utility.yul\":6656:6659   */\n      dup3\n        /* \"#utility.yul\":6652:6664   */\n      add\n        /* \"#utility.yul\":6645:6664   */\n      swap1\n      pop\n        /* \"#utility.yul\":6304:6670   */\n      swap2\n      swap1\n      pop\n      jump\t// out\n        /* \"#utility.yul\":6676:7095   */\n    tag_73:\n        /* \"#utility.yul\":6842:6846   */\n      0x00\n        /* \"#utility.yul\":6880:6882   */\n      0x20\n        /* \"#utility.yul\":6869:6878   */\n      dup3\n        /* \"#utility.yul\":6865:6883   */\n      add\n        /* \"#utility.yul\":6857:6883   */\n      swap1\n      pop\n        /* \"#utility.yul\":6929:6938   */\n      dup2\n        /* \"#utility.yul\":6923:6927   */\n      dup2\n        /* \"#utility.yul\":6919:6939   */\n      sub\n        /* \"#utility.yul\":6915:6916   */\n      0x00\n        /* \"#utility.yul\":6904:6913   */\n      dup4\n        /* \"#utility.yul\":6900:6917   */\n      add\n        /* \"#utility.yul\":6893:6940   */\n      mstore\n        /* \"#utility.yul\":6957:7088   */\n      tag_186\n        /* \"#utility.yul\":7083:7087   */\n      dup2\n        /* \"#utility.yul\":6957:7088   */\n      tag_114\n      jump\t// in\n    tag_186:\n        /* \"#utility.yul\":6949:7088   */\n      swap1\n      pop\n        /* \"#utility.yul\":6676:7095   */\n      swap2\n      swap1\n      pop\n      jump\t// out\n        /* \"#utility.yul\":7101:7283   */\n    tag_115:\n        /* \"#utility.yul\":7241:7275   */\n      0x4f776e61626c653a2063616c6c6572206973206e6f7420746865206f776e6572\n        /* \"#utility.yul\":7237:7238   */\n      0x00\n        /* \"#utility.yul\":7229:7235   */\n      dup3\n        /* \"#utility.yul\":7225:7239   */\n      add\n        /* \"#utility.yul\":7218:7276   */\n      mstore\n        /* \"#utility.yul\":7101:7283   */\n      pop\n      jump\t// out\n        /* \"#utility.yul\":7289:7655   */\n    tag_116:\n        /* \"#utility.yul\":7431:7434   */\n      0x00\n        /* \"#utility.yul\":7452:7519   */\n      tag_189\n        /* \"#utility.yul\":7516:7518   */\n      0x20\n        /* \"#utility.yul\":7511:7514   */\n      dup4\n        /* \"#utility.yul\":7452:7519   */\n      tag_108\n      jump\t// in\n    tag_189:\n        /* \"#utility.yul\":7445:7519   */\n      swap2\n      pop\n        /* \"#utility.yul\":7528:7621   */\n      tag_190\n        /* \"#utility.yul\":7617:7620   */\n      dup3\n        /* \"#utility.yul\":7528:7621   */\n      tag_115\n      jump\t// in\n    tag_190:\n        /* \"#utility.yul\":7646:7648   */\n      0x20\n        /* \"#utility.yul\":7641:7644   */\n      dup3\n        /* \"#utility.yul\":7637:7649   */\n      add\n        /* \"#utility.yul\":7630:7649   */\n      swap1\n      pop\n        /* \"#utility.yul\":7289:7655   */\n      swap2\n      swap1\n      pop\n      jump\t// out\n        /* \"#utility.yul\":7661:8080   */\n    tag_85:\n        /* \"#utility.yul\":7827:7831   */\n      0x00\n        /* \"#utility.yul\":7865:7867   */\n      0x20\n        /* \"#utility.yul\":7854:7863   */\n      dup3\n        /* \"#utility.yul\":7850:7868   */\n      add\n        /* \"#utility.yul\":7842:7868   */\n      swap1\n      pop\n        /* \"#utility.yul\":7914:7923   */\n      dup2\n        /* \"#utility.yul\":7908:7912   */\n      dup2\n        /* \"#utility.yul\":7904:7924   */\n      sub\n        /* \"#utility.yul\":7900:7901   */\n      0x00\n        /* \"#utility.yul\":7889:7898   */\n      dup4\n        /* \"#utility.yul\":7885:7902   */\n      add\n        /* \"#utility.yul\":7878:7925   */\n      mstore\n        /* \"#utility.yul\":7942:8073   */\n      tag_192\n        /* \"#utility.yul\":8068:8072   */\n      dup2\n        /* \"#utility.yul\":7942:8073   */\n      tag_116\n      jump\t// in\n    tag_192:\n        /* \"#utility.yul\":7934:8073   */\n      swap1\n      pop\n        /* \"#utility.yul\":7661:8080   */\n      swap2\n      swap1\n      pop\n      jump\t// out\n        /* \"#utility.yul\":8086:8266   */\n    tag_117:\n        /* \"#utility.yul\":8134:8211   */\n      0x4e487b7100000000000000000000000000000000000000000000000000000000\n        /* \"#utility.yul\":8131:8132   */\n      0x00\n        /* \"#utility.yul\":8124:8212   */\n      mstore\n        /* \"#utility.yul\":8231:8235   */\n      0x11\n        /* \"#utility.yul\":8228:8229   */\n      0x04\n        /* \"#utility.yul\":8221:8236   */\n      mstore\n        /* \"#utility.yul\":8255:8259   */\n      0x24\n        /* \"#utility.yul\":8252:8253   */\n      0x00\n        /* \"#utility.yul\":8245:8260   */\n      revert\n        /* \"#utility.yul\":8272:8466   */\n    tag_89:\n        /* \"#utility.yul\":8312:8316   */\n      0x00\n        /* \"#utility.yul\":8332:8352   */\n      tag_195\n        /* \"#utility.yul\":8350:8351   */\n      dup3\n        /* \"#utility.yul\":8332:8352   */\n      tag_100\n      jump\t// in\n    tag_195:\n        /* \"#utility.yul\":8327:8352   */\n      swap2\n      pop\n        /* \"#utility.yul\":8366:8386   */\n      tag_196\n        /* \"#utility.yul\":8384:8385   */\n      dup4\n        /* \"#utility.yul\":8366:8386   */\n      tag_100\n      jump\t// in\n    tag_196:\n        /* \"#utility.yul\":8361:8386   */\n      swap3\n      pop\n        /* \"#utility.yul\":8410:8411   */\n      dup3\n        /* \"#utility.yul\":8407:8408   */\n      dup3\n        /* \"#utility.yul\":8403:8412   */\n      sub\n        /* \"#utility.yul\":8395:8412   */\n      swap1\n      pop\n        /* \"#utility.yul\":8434:8435   */\n      dup2\n        /* \"#utility.yul\":8428:8432   */\n      dup2\n        /* \"#utility.yul\":8425:8436   */\n      gt\n        /* \"#utility.yul\":8422:8459   */\n      iszero\n      tag_197\n      jumpi\n        /* \"#utility.yul\":8439:8457   */\n      tag_198\n      tag_117\n      jump\t// in\n    tag_198:\n        /* \"#utility.yul\":8422:8459   */\n    tag_197:\n        /* \"#utility.yul\":8272:8466   */\n      swap3\n      swap2\n      pop\n      pop\n      jump\t// out\n\n    auxdata: 0xa2646970667358221220870046c7dd6b060216e3d3070b396d853637652855295929b0e951f29b68b52664736f6c63430008110033\n}\n",
				"bytecode": {
					"linkReferences": {},
					"object": "608060405234801561001057600080fd5b5061002d61002261003260201b60201c565b61003a60201b60201c565b6100fe565b600033905090565b60008060009054906101000a900473ffffffffffffffffffffffffffffffffffffffff169050816000806101000a81548173ffffffffffffffffffffffffffffffffffffffff021916908373ffffffffffffffffffffffffffffffffffffffff1602179055508173ffffffffffffffffffffffffffffffffffffffff168173ffffffffffffffffffffffffffffffffffffffff167f8be0079c531659141344cd1fd0a4f28419497f9722a3daafe3b4186f6b6457e060405160405180910390a35050565b610c908061010d6000396000f3fe6080604052600436106100705760003560e01c8063d0e30db01161004e578063d0e30db0146100f4578063f274c897146100fe578063f2fde38b14610127578063f3c40c4b1461015057610070565b80633e5beab914610075578063715018a6146100b25780638da5cb5b146100c9575b600080fd5b34801561008157600080fd5b5061009c60048036038101906100979190610872565b610179565b6040516100a991906108b8565b60405180910390f35b3480156100be57600080fd5b506100c7610191565b005b3480156100d557600080fd5b506100de6101a5565b6040516100eb91906108e2565b60405180910390f35b6100fc6101ce565b005b34801561010a57600080fd5b5061012560048036038101906101209190610967565b610220565b005b34801561013357600080fd5b5061014e60048036038101906101499190610872565b610402565b005b34801561015c57600080fd5b50610177600480360381019061017291906109a7565b610485565b005b60016020528060005260406000206000915090505481565b61019961057b565b6101a360006105f9565b565b60008060009054906101000a900473ffffffffffffffffffffffffffffffffffffffff16905090565b3373ffffffffffffffffffffffffffffffffffffffff167f3842143a05b067827f219bd5e2cbc92b17806142f836dc8e7c7a02e55dceb92947346040516102169291906109e7565b60405180910390a2565b806102296101a5565b73ffffffffffffffffffffffffffffffffffffffff163373ffffffffffffffffffffffffffffffffffffffff1614806102a15750600160003373ffffffffffffffffffffffffffffffffffffffff1673ffffffffffffffffffffffffffffffffffffffff168152602001908152602001600020548111155b6102e0576040517f08c379a00000000000000000000000000000000000000000000000000000000081526004016102d790610a6d565b60405180910390fd5b47821115610323576040517f08c379a000000000000000000000000000000000000000000000000000000000815260040161031a90610ad9565b60405180910390fd5b61032b6101a5565b73ffffffffffffffffffffffffffffffffffffffff163373ffffffffffffffffffffffffffffffffffffffff16146103685761036733836106bd565b5b3373ffffffffffffffffffffffffffffffffffffffff167f630898e2c2f457e1126e20e444ed2807734fc741f763c11e28d5777781c6928a836040516103ae91906108b8565b60405180910390a28273ffffffffffffffffffffffffffffffffffffffff166108fc839081150290604051600060405180830381858888f193505050501580156103fc573d6000803e3d6000fd5b50505050565b61040a61057b565b600073ffffffffffffffffffffffffffffffffffffffff168173ffffffffffffffffffffffffffffffffffffffff1603610479576040517f08c379a000000000000000000000000000000000000000000000000000000000815260040161047090610b6b565b60405180910390fd5b610482816105f9565b50565b61048d61057b565b3373ffffffffffffffffffffffffffffffffffffffff168273ffffffffffffffffffffffffffffffffffffffff167f3691d1a86d99355e52b689ca70a7bdf6d80763237a6aa06e5fa43964eac7244b600160008673ffffffffffffffffffffffffffffffffffffffff1673ffffffffffffffffffffffffffffffffffffffff168152602001908152602001600020548460405161052b9291906109e7565b60405180910390a380600160008473ffffffffffffffffffffffffffffffffffffffff1673ffffffffffffffffffffffffffffffffffffffff168152602001908152602001600020819055505050565b610583610807565b73ffffffffffffffffffffffffffffffffffffffff166105a16101a5565b73ffffffffffffffffffffffffffffffffffffffff16146105f7576040517f08c379a00000000000000000000000000000000000000000000000000000000081526004016105ee90610bd7565b60405180910390fd5b565b60008060009054906101000a900473ffffffffffffffffffffffffffffffffffffffff169050816000806101000a81548173ffffffffffffffffffffffffffffffffffffffff021916908373ffffffffffffffffffffffffffffffffffffffff1602179055508173ffffffffffffffffffffffffffffffffffffffff168173ffffffffffffffffffffffffffffffffffffffff167f8be0079c531659141344cd1fd0a4f28419497f9722a3daafe3b4186f6b6457e060405160405180910390a35050565b3373ffffffffffffffffffffffffffffffffffffffff168273ffffffffffffffffffffffffffffffffffffffff167f3691d1a86d99355e52b689ca70a7bdf6d80763237a6aa06e5fa43964eac7244b600160008673ffffffffffffffffffffffffffffffffffffffff1673ffffffffffffffffffffffffffffffffffffffff1681526020019081526020016000205484600160008873ffffffffffffffffffffffffffffffffffffffff1673ffffffffffffffffffffffffffffffffffffffff168152602001908152602001600020546107979190610c26565b6040516107a59291906109e7565b60405180910390a380600160008473ffffffffffffffffffffffffffffffffffffffff1673ffffffffffffffffffffffffffffffffffffffff16815260200190815260200160002060008282546107fc9190610c26565b925050819055505050565b600033905090565b600080fd5b600073ffffffffffffffffffffffffffffffffffffffff82169050919050565b600061083f82610814565b9050919050565b61084f81610834565b811461085a57600080fd5b50565b60008135905061086c81610846565b92915050565b6000602082840312156108885761088761080f565b5b60006108968482850161085d565b91505092915050565b6000819050919050565b6108b28161089f565b82525050565b60006020820190506108cd60008301846108a9565b92915050565b6108dc81610834565b82525050565b60006020820190506108f760008301846108d3565b92915050565b600061090882610814565b9050919050565b610918816108fd565b811461092357600080fd5b50565b6000813590506109358161090f565b92915050565b6109448161089f565b811461094f57600080fd5b50565b6000813590506109618161093b565b92915050565b6000806040838503121561097e5761097d61080f565b5b600061098c85828601610926565b925050602061099d85828601610952565b9150509250929050565b600080604083850312156109be576109bd61080f565b5b60006109cc8582860161085d565b92505060206109dd85828601610952565b9150509250929050565b60006040820190506109fc60008301856108a9565b610a0960208301846108a9565b9392505050565b600082825260208201905092915050565b7f4e6f7420416c6c6f776564000000000000000000000000000000000000000000600082015250565b6000610a57600b83610a10565b9150610a6282610a21565b602082019050919050565b60006020820190508181036000830152610a8681610a4a565b9050919050565b7f4e6f7420656e6f7567682046756e647300000000000000000000000000000000600082015250565b6000610ac3601083610a10565b9150610ace82610a8d565b602082019050919050565b60006020820190508181036000830152610af281610ab6565b9050919050565b7f4f776e61626c653a206e6577206f776e657220697320746865207a65726f206160008201527f6464726573730000000000000000000000000000000000000000000000000000602082015250565b6000610b55602683610a10565b9150610b6082610af9565b604082019050919050565b60006020820190508181036000830152610b8481610b48565b9050919050565b7f4f776e61626c653a2063616c6c6572206973206e6f7420746865206f776e6572600082015250565b6000610bc1602083610a10565b9150610bcc82610b8b565b602082019050919050565b60006020820190508181036000830152610bf081610bb4565b9050919050565b7f4e487b7100000000000000000000000000000000000000000000000000000000600052601160045260246000fd5b6000610c318261089f565b9150610c3c8361089f565b9250828203905081811115610c5457610c53610bf7565b5b9291505056fea2646970667358221220870046c7dd6b060216e3d3070b396d853637652855295929b0e951f29b68b52664736f6c63430008110033",
					"opcodes": "PUSH1 0x80 PUSH1 0x40 MSTORE CALLVALUE DUP1 ISZERO PUSH2 0x10 JUMPI PUSH1 0x0 DUP1 REVERT JUMPDEST POP PUSH2 0x2D PUSH2 0x22 PUSH2 0x32 PUSH1 0x20 SHL PUSH1 0x20 SHR JUMP JUMPDEST PUSH2 0x3A PUSH1 0x20 SHL PUSH1 0x20 SHR JUMP JUMPDEST PUSH2 0xFE JUMP JUMPDEST PUSH1 0x0 CALLER SWAP1 POP SWAP1 JUMP JUMPDEST PUSH1 0x0 DUP1 PUSH1 0x0 SWAP1 SLOAD SWAP1 PUSH2 0x100 EXP SWAP1 DIV PUSH20 0xFFFFFFFFFFFFFFFFFFFFFFFFFFFFFFFFFFFFFFFF AND SWAP1 POP DUP2 PUSH1 0x0 DUP1 PUSH2 0x100 EXP DUP2 SLOAD DUP2 PUSH20 0xFFFFFFFFFFFFFFFFFFFFFFFFFFFFFFFFFFFFFFFF MUL NOT AND SWAP1 DUP4 PUSH20 0xFFFFFFFFFFFFFFFFFFFFFFFFFFFFFFFFFFFFFFFF AND MUL OR SWAP1 SSTORE POP DUP2 PUSH20 0xFFFFFFFFFFFFFFFFFFFFFFFFFFFFFFFFFFFFFFFF AND DUP2 PUSH20 0xFFFFFFFFFFFFFFFFFFFFFFFFFFFFFFFFFFFFFFFF AND PUSH32 0x8BE0079C531659141344CD1FD0A4F28419497F9722A3DAAFE3B4186F6B6457E0 PUSH1 0x40 MLOAD PUSH1 0x40 MLOAD DUP1 SWAP2 SUB SWAP1 LOG3 POP POP JUMP JUMPDEST PUSH2 0xC90 DUP1 PUSH2 0x10D PUSH1 0x0 CODECOPY PUSH1 0x0 RETURN INVALID PUSH1 0x80 PUSH1 0x40 MSTORE PUSH1 0x4 CALLDATASIZE LT PUSH2 0x70 JUMPI PUSH1 0x0 CALLDATALOAD PUSH1 0xE0 SHR DUP1 PUSH4 0xD0E30DB0 GT PUSH2 0x4E JUMPI DUP1 PUSH4 0xD0E30DB0 EQ PUSH2 0xF4 JUMPI DUP1 PUSH4 0xF274C897 EQ PUSH2 0xFE JUMPI DUP1 PUSH4 0xF2FDE38B EQ PUSH2 0x127 JUMPI DUP1 PUSH4 0xF3C40C4B EQ PUSH2 0x150 JUMPI PUSH2 0x70 JUMP JUMPDEST DUP1 PUSH4 0x3E5BEAB9 EQ PUSH2 0x75 JUMPI DUP1 PUSH4 0x715018A6 EQ PUSH2 0xB2 JUMPI DUP1 PUSH4 0x8DA5CB5B EQ PUSH2 0xC9 JUMPI JUMPDEST PUSH1 0x0 DUP1 REVERT JUMPDEST CALLVALUE DUP1 ISZERO PUSH2 0x81 JUMPI PUSH1 0x0 DUP1 REVERT JUMPDEST POP PUSH2 0x9C PUSH1 0x4 DUP1 CALLDATASIZE SUB DUP2 ADD SWAP1 PUSH2 0x97 SWAP2 SWAP1 PUSH2 0x872 JUMP JUMPDEST PUSH2 0x179 JUMP JUMPDEST PUSH1 0x40 MLOAD PUSH2 0xA9 SWAP2 SWAP1 PUSH2 0x8B8 JUMP JUMPDEST PUSH1 0x40 MLOAD DUP1 SWAP2 SUB SWAP1 RETURN JUMPDEST CALLVALUE DUP1 ISZERO PUSH2 0xBE JUMPI PUSH1 0x0 DUP1 REVERT JUMPDEST POP PUSH2 0xC7 PUSH2 0x191 JUMP JUMPDEST STOP JUMPDEST CALLVALUE DUP1 ISZERO PUSH2 0xD5 JUMPI PUSH1 0x0 DUP1 REVERT JUMPDEST POP PUSH2 0xDE PUSH2 0x1A5 JUMP JUMPDEST PUSH1 0x40 MLOAD PUSH2 0xEB SWAP2 SWAP1 PUSH2 0x8E2 JUMP JUMPDEST PUSH1 0x40 MLOAD DUP1 SWAP2 SUB SWAP1 RETURN JUMPDEST PUSH2 0xFC PUSH2 0x1CE JUMP JUMPDEST STOP JUMPDEST CALLVALUE DUP1 ISZERO PUSH2 0x10A JUMPI PUSH1 0x0 DUP1 REVERT JUMPDEST POP PUSH2 0x125 PUSH1 0x4 DUP1 CALLDATASIZE SUB DUP2 ADD SWAP1 PUSH2 0x120 SWAP2 SWAP1 PUSH2 0x967 JUMP JUMPDEST PUSH2 0x220 JUMP JUMPDEST STOP JUMPDEST CALLVALUE DUP1 ISZERO PUSH2 0x133 JUMPI PUSH1 0x0 DUP1 REVERT JUMPDEST POP PUSH2 0x14E PUSH1 0x4 DUP1 CALLDATASIZE SUB DUP2 ADD SWAP1 PUSH2 0x149 SWAP2 SWAP1 PUSH2 0x872 JUMP JUMPDEST PUSH2 0x402 JUMP JUMPDEST STOP JUMPDEST CALLVALUE DUP1 ISZERO PUSH2 0x15C JUMPI PUSH1 0x0 DUP1 REVERT JUMPDEST POP PUSH2 0x177 PUSH1 0x4 DUP1 CALLDATASIZE SUB DUP2 ADD SWAP1 PUSH2 0x172 SWAP2 SWAP1 PUSH2 0x9A7 JUMP JUMPDEST PUSH2 0x485 JUMP JUMPDEST STOP JUMPDEST PUSH1 0x1 PUSH1 0x20 MSTORE DUP1 PUSH1 0x0 MSTORE PUSH1 0x40 PUSH1 0x0 KECCAK256 PUSH1 0x0 SWAP2 POP SWAP1 POP SLOAD DUP2 JUMP JUMPDEST PUSH2 0x199 PUSH2 0x57B JUMP JUMPDEST PUSH2 0x1A3 PUSH1 0x0 PUSH2 0x5F9 JUMP JUMPDEST JUMP JUMPDEST PUSH1 0x0 DUP1 PUSH1 0x0 SWAP1 SLOAD SWAP1 PUSH2 0x100 EXP SWAP1 DIV PUSH20 0xFFFFFFFFFFFFFFFFFFFFFFFFFFFFFFFFFFFFFFFF AND SWAP1 POP SWAP1 JUMP JUMPDEST CALLER PUSH20 0xFFFFFFFFFFFFFFFFFFFFFFFFFFFFFFFFFFFFFFFF AND PUSH32 0x3842143A05B067827F219BD5E2CBC92B17806142F836DC8E7C7A02E55DCEB929 SELFBALANCE CALLVALUE PUSH1 0x40 MLOAD PUSH2 0x216 SWAP3 SWAP2 SWAP1 PUSH2 0x9E7 JUMP JUMPDEST PUSH1 0x40 MLOAD DUP1 SWAP2 SUB SWAP1 LOG2 JUMP JUMPDEST DUP1 PUSH2 0x229 PUSH2 0x1A5 JUMP JUMPDEST PUSH20 0xFFFFFFFFFFFFFFFFFFFFFFFFFFFFFFFFFFFFFFFF AND CALLER PUSH20 0xFFFFFFFFFFFFFFFFFFFFFFFFFFFFFFFFFFFFFFFF AND EQ DUP1 PUSH2 0x2A1 JUMPI POP PUSH1 0x1 PUSH1 0x0 CALLER PUSH20 0xFFFFFFFFFFFFFFFFFFFFFFFFFFFFFFFFFFFFFFFF AND PUSH20 0xFFFFFFFFFFFFFFFFFFFFFFFFFFFFFFFFFFFFFFFF AND DUP2 MSTORE PUSH1 0x20 ADD SWAP1 DUP2 MSTORE PUSH1 0x20 ADD PUSH1 0x0 KECCAK256 SLOAD DUP2 GT ISZERO JUMPDEST PUSH2 0x2E0 JUMPI PUSH1 0x40 MLOAD PUSH32 0x8C379A000000000000000000000000000000000000000000000000000000000 DUP2 MSTORE PUSH1 0x4 ADD PUSH2 0x2D7 SWAP1 PUSH2 0xA6D JUMP JUMPDEST PUSH1 0x40 MLOAD DUP1 SWAP2 SUB SWAP1 REVERT JUMPDEST SELFBALANCE DUP3 GT ISZERO PUSH2 0x323 JUMPI PUSH1 0x40 MLOAD PUSH32 0x8C379A000000000000000000000000000000000000000000000000000000000 DUP2 MSTORE PUSH1 0x4 ADD PUSH2 0x31A SWAP1 PUSH2 0xAD9 JUMP JUMPDEST PUSH1 0x40 MLOAD DUP1 SWAP2 SUB SWAP1 REVERT JUMPDEST PUSH2 0x32B PUSH2 0x1A5 JUMP JUMPDEST PUSH20 0xFFFFFFFFFFFFFFFFFFFFFFFFFFFFFFFFFFFFFFFF AND CALLER PUSH20 0xFFFFFFFFFFFFFFFFFFFFFFFFFFFFFFFFFFFFFFFF AND EQ PUSH2 0x368 JUMPI PUSH2 0x367 CALLER DUP4 PUSH2 0x6BD JUMP JUMPDEST JUMPDEST CALLER PUSH20 0xFFFFFFFFFFFFFFFFFFFFFFFFFFFFFFFFFFFFFFFF AND PUSH32 0x630898E2C2F457E1126E20E444ED2807734FC741F763C11E28D5777781C6928A DUP4 PUSH1 0x40 MLOAD PUSH2 0x3AE SWAP2 SWAP1 PUSH2 0x8B8 JUMP JUMPDEST PUSH1 0x40 MLOAD DUP1 SWAP2 SUB SWAP1 LOG2 DUP3 PUSH20 0xFFFFFFFFFFFFFFFFFFFFFFFFFFFFFFFFFFFFFFFF AND PUSH2 0x8FC DUP4 SWAP1 DUP2 ISZERO MUL SWAP1 PUSH1 0x40 MLOAD PUSH1 0x0 PUSH1 0x40 MLOAD DUP1 DUP4 SUB DUP2 DUP6 DUP9 DUP9 CALL SWAP4 POP POP POP POP ISZERO DUP1 ISZERO PUSH2 0x3FC JUMPI RETURNDATASIZE PUSH1 0x0 DUP1 RETURNDATACOPY RETURNDATASIZE PUSH1 0x0 REVERT JUMPDEST POP POP POP POP JUMP JUMPDEST PUSH2 0x40A PUSH2 0x57B JUMP JUMPDEST PUSH1 0x0 PUSH20 0xFFFFFFFFFFFFFFFFFFFFFFFFFFFFFFFFFFFFFFFF AND DUP2 PUSH20 0xFFFFFFFFFFFFFFFFFFFFFFFFFFFFFFFFFFFFFFFF AND SUB PUSH2 0x479 JUMPI PUSH1 0x40 MLOAD PUSH32 0x8C379A000000000000000000000000000000000000000000000000000000000 DUP2 MSTORE PUSH1 0x4 ADD PUSH2 0x470 SWAP1 PUSH2 0xB6B JUMP JUMPDEST PUSH1 0x40 MLOAD DUP1 SWAP2 SUB SWAP1 REVERT JUMPDEST PUSH2 0x482 DUP2 PUSH2 0x5F9 JUMP JUMPDEST POP JUMP JUMPDEST PUSH2 0x48D PUSH2 0x57B JUMP JUMPDEST CALLER PUSH20 0xFFFFFFFFFFFFFFFFFFFFFFFFFFFFFFFFFFFFFFFF AND DUP3 PUSH20 0xFFFFFFFFFFFFFFFFFFFFFFFFFFFFFFFFFFFFFFFF AND PUSH32 0x3691D1A86D99355E52B689CA70A7BDF6D80763237A6AA06E5FA43964EAC7244B PUSH1 0x1 PUSH1 0x0 DUP7 PUSH20 0xFFFFFFFFFFFFFFFFFFFFFFFFFFFFFFFFFFFFFFFF AND PUSH20 0xFFFFFFFFFFFFFFFFFFFFFFFFFFFFFFFFFFFFFFFF AND DUP2 MSTORE PUSH1 0x20 ADD SWAP1 DUP2 MSTORE PUSH1 0x20 ADD PUSH1 0x0 KECCAK256 SLOAD DUP5 PUSH1 0x40 MLOAD PUSH2 0x52B SWAP3 SWAP2 SWAP1 PUSH2 0x9E7 JUMP JUMPDEST PUSH1 0x40 MLOAD DUP1 SWAP2 SUB SWAP1 LOG3 DUP1 PUSH1 0x1 PUSH1 0x0 DUP5 PUSH20 0xFFFFFFFFFFFFFFFFFFFFFFFFFFFFFFFFFFFFFFFF AND PUSH20 0xFFFFFFFFFFFFFFFFFFFFFFFFFFFFFFFFFFFFFFFF AND DUP2 MSTORE PUSH1 0x20 ADD SWAP1 DUP2 MSTORE PUSH1 0x20 ADD PUSH1 0x0 KECCAK256 DUP2 SWAP1 SSTORE POP POP POP JUMP JUMPDEST PUSH2 0x583 PUSH2 0x807 JUMP JUMPDEST PUSH20 0xFFFFFFFFFFFFFFFFFFFFFFFFFFFFFFFFFFFFFFFF AND PUSH2 0x5A1 PUSH2 0x1A5 JUMP JUMPDEST PUSH20 0xFFFFFFFFFFFFFFFFFFFFFFFFFFFFFFFFFFFFFFFF AND EQ PUSH2 0x5F7 JUMPI PUSH1 0x40 MLOAD PUSH32 0x8C379A000000000000000000000000000000000000000000000000000000000 DUP2 MSTORE PUSH1 0x4 ADD PUSH2 0x5EE SWAP1 PUSH2 0xBD7 JUMP JUMPDEST PUSH1 0x40 MLOAD DUP1 SWAP2 SUB SWAP1 REVERT JUMPDEST JUMP JUMPDEST PUSH1 0x0 DUP1 PUSH1 0x0 SWAP1 SLOAD SWAP1 PUSH2 0x100 EXP SWAP1 DIV PUSH20 0xFFFFFFFFFFFFFFFFFFFFFFFFFFFFFFFFFFFFFFFF AND SWAP1 POP DUP2 PUSH1 0x0 DUP1 PUSH2 0x100 EXP DUP2 SLOAD DUP2 PUSH20 0xFFFFFFFFFFFFFFFFFFFFFFFFFFFFFFFFFFFFFFFF MUL NOT AND SWAP1 DUP4 PUSH20 0xFFFFFFFFFFFFFFFFFFFFFFFFFFFFFFFFFFFFFFFF AND MUL OR SWAP1 SSTORE POP DUP2 PUSH20 0xFFFFFFFFFFFFFFFFFFFFFFFFFFFFFFFFFFFFFFFF AND DUP2 PUSH20 0xFFFFFFFFFFFFFFFFFFFFFFFFFFFFFFFFFFFFFFFF AND PUSH32 0x8BE0079C531659141344CD1FD0A4F28419497F9722A3DAAFE3B4186F6B6457E0 PUSH1 0x40 MLOAD PUSH1 0x40 MLOAD DUP1 SWAP2 SUB SWAP1 LOG3 POP POP JUMP JUMPDEST CALLER PUSH20 0xFFFFFFFFFFFFFFFFFFFFFFFFFFFFFFFFFFFFFFFF AND DUP3 PUSH20 0xFFFFFFFFFFFFFFFFFFFFFFFFFFFFFFFFFFFFFFFF AND PUSH32 0x3691D1A86D99355E52B689CA70A7BDF6D80763237A6AA06E5FA43964EAC7244B PUSH1 0x1 PUSH1 0x0 DUP7 PUSH20 0xFFFFFFFFFFFFFFFFFFFFFFFFFFFFFFFFFFFFFFFF AND PUSH20 0xFFFFFFFFFFFFFFFFFFFFFFFFFFFFFFFFFFFFFFFF AND DUP2 MSTORE PUSH1 0x20 ADD SWAP1 DUP2 MSTORE PUSH1 0x20 ADD PUSH1 0x0 KECCAK256 SLOAD DUP5 PUSH1 0x1 PUSH1 0x0 DUP9 PUSH20 0xFFFFFFFFFFFFFFFFFFFFFFFFFFFFFFFFFFFFFFFF AND PUSH20 0xFFFFFFFFFFFFFFFFFFFFFFFFFFFFFFFFFFFFFFFF AND DUP2 MSTORE PUSH1 0x20 ADD SWAP1 DUP2 MSTORE PUSH1 0x20 ADD PUSH1 0x0 KECCAK256 SLOAD PUSH2 0x797 SWAP2 SWAP1 PUSH2 0xC26 JUMP JUMPDEST PUSH1 0x40 MLOAD PUSH2 0x7A5 SWAP3 SWAP2 SWAP1 PUSH2 0x9E7 JUMP JUMPDEST PUSH1 0x40 MLOAD DUP1 SWAP2 SUB SWAP1 LOG3 DUP1 PUSH1 0x1 PUSH1 0x0 DUP5 PUSH20 0xFFFFFFFFFFFFFFFFFFFFFFFFFFFFFFFFFFFFFFFF AND PUSH20 0xFFFFFFFFFFFFFFFFFFFFFFFFFFFFFFFFFFFFFFFF AND DUP2 MSTORE PUSH1 0x20 ADD SWAP1 DUP2 MSTORE PUSH1 0x20 ADD PUSH1 0x0 KECCAK256 PUSH1 0x0 DUP3 DUP3 SLOAD PUSH2 0x7FC SWAP2 SWAP1 PUSH2 0xC26 JUMP JUMPDEST SWAP3 POP POP DUP2 SWAP1 SSTORE POP POP POP JUMP JUMPDEST PUSH1 0x0 CALLER SWAP1 POP SWAP1 JUMP JUMPDEST PUSH1 0x0 DUP1 REVERT JUMPDEST PUSH1 0x0 PUSH20 0xFFFFFFFFFFFFFFFFFFFFFFFFFFFFFFFFFFFFFFFF DUP3 AND SWAP1 POP SWAP2 SWAP1 POP JUMP JUMPDEST PUSH1 0x0 PUSH2 0x83F DUP3 PUSH2 0x814 JUMP JUMPDEST SWAP1 POP SWAP2 SWAP1 POP JUMP JUMPDEST PUSH2 0x84F DUP2 PUSH2 0x834 JUMP JUMPDEST DUP2 EQ PUSH2 0x85A JUMPI PUSH1 0x0 DUP1 REVERT JUMPDEST POP JUMP JUMPDEST PUSH1 0x0 DUP2 CALLDATALOAD SWAP1 POP PUSH2 0x86C DUP2 PUSH2 0x846 JUMP JUMPDEST SWAP3 SWAP2 POP POP JUMP JUMPDEST PUSH1 0x0 PUSH1 0x20 DUP3 DUP5 SUB SLT ISZERO PUSH2 0x888 JUMPI PUSH2 0x887 PUSH2 0x80F JUMP JUMPDEST JUMPDEST PUSH1 0x0 PUSH2 0x896 DUP5 DUP3 DUP6 ADD PUSH2 0x85D JUMP JUMPDEST SWAP2 POP POP SWAP3 SWAP2 POP POP JUMP JUMPDEST PUSH1 0x0 DUP2 SWAP1 POP SWAP2 SWAP1 POP JUMP JUMPDEST PUSH2 0x8B2 DUP2 PUSH2 0x89F JUMP JUMPDEST DUP3 MSTORE POP POP JUMP JUMPDEST PUSH1 0x0 PUSH1 0x20 DUP3 ADD SWAP1 POP PUSH2 0x8CD PUSH1 0x0 DUP4 ADD DUP5 PUSH2 0x8A9 JUMP JUMPDEST SWAP3 SWAP2 POP POP JUMP JUMPDEST PUSH2 0x8DC DUP2 PUSH2 0x834 JUMP JUMPDEST DUP3 MSTORE POP POP JUMP JUMPDEST PUSH1 0x0 PUSH1 0x20 DUP3 ADD SWAP1 POP PUSH2 0x8F7 PUSH1 0x0 DUP4 ADD DUP5 PUSH2 0x8D3 JUMP JUMPDEST SWAP3 SWAP2 POP POP JUMP JUMPDEST PUSH1 0x0 PUSH2 0x908 DUP3 PUSH2 0x814 JUMP JUMPDEST SWAP1 POP SWAP2 SWAP1 POP JUMP JUMPDEST PUSH2 0x918 DUP2 PUSH2 0x8FD JUMP JUMPDEST DUP2 EQ PUSH2 0x923 JUMPI PUSH1 0x0 DUP1 REVERT JUMPDEST POP JUMP JUMPDEST PUSH1 0x0 DUP2 CALLDATALOAD SWAP1 POP PUSH2 0x935 DUP2 PUSH2 0x90F JUMP JUMPDEST SWAP3 SWAP2 POP POP JUMP JUMPDEST PUSH2 0x944 DUP2 PUSH2 0x89F JUMP JUMPDEST DUP2 EQ PUSH2 0x94F JUMPI PUSH1 0x0 DUP1 REVERT JUMPDEST POP JUMP JUMPDEST PUSH1 0x0 DUP2 CALLDATALOAD SWAP1 POP PUSH2 0x961 DUP2 PUSH2 0x93B JUMP JUMPDEST SWAP3 SWAP2 POP POP JUMP JUMPDEST PUSH1 0x0 DUP1 PUSH1 0x40 DUP4 DUP6 SUB SLT ISZERO PUSH2 0x97E JUMPI PUSH2 0x97D PUSH2 0x80F JUMP JUMPDEST JUMPDEST PUSH1 0x0 PUSH2 0x98C DUP6 DUP3 DUP7 ADD PUSH2 0x926 JUMP JUMPDEST SWAP3 POP POP PUSH1 0x20 PUSH2 0x99D DUP6 DUP3 DUP7 ADD PUSH2 0x952 JUMP JUMPDEST SWAP2 POP POP SWAP3 POP SWAP3 SWAP1 POP JUMP JUMPDEST PUSH1 0x0 DUP1 PUSH1 0x40 DUP4 DUP6 SUB SLT ISZERO PUSH2 0x9BE JUMPI PUSH2 0x9BD PUSH2 0x80F JUMP JUMPDEST JUMPDEST PUSH1 0x0 PUSH2 0x9CC DUP6 DUP3 DUP7 ADD PUSH2 0x85D JUMP JUMPDEST SWAP3 POP POP PUSH1 0x20 PUSH2 0x9DD DUP6 DUP3 DUP7 ADD PUSH2 0x952 JUMP JUMPDEST SWAP2 POP POP SWAP3 POP SWAP3 SWAP1 POP JUMP JUMPDEST PUSH1 0x0 PUSH1 0x40 DUP3 ADD SWAP1 POP PUSH2 0x9FC PUSH1 0x0 DUP4 ADD DUP6 PUSH2 0x8A9 JUMP JUMPDEST PUSH2 0xA09 PUSH1 0x20 DUP4 ADD DUP5 PUSH2 0x8A9 JUMP JUMPDEST SWAP4 SWAP3 POP POP POP JUMP JUMPDEST PUSH1 0x0 DUP3 DUP3 MSTORE PUSH1 0x20 DUP3 ADD SWAP1 POP SWAP3 SWAP2 POP POP JUMP JUMPDEST PUSH32 0x4E6F7420416C6C6F776564000000000000000000000000000000000000000000 PUSH1 0x0 DUP3 ADD MSTORE POP JUMP JUMPDEST PUSH1 0x0 PUSH2 0xA57 PUSH1 0xB DUP4 PUSH2 0xA10 JUMP JUMPDEST SWAP2 POP PUSH2 0xA62 DUP3 PUSH2 0xA21 JUMP JUMPDEST PUSH1 0x20 DUP3 ADD SWAP1 POP SWAP2 SWAP1 POP JUMP JUMPDEST PUSH1 0x0 PUSH1 0x20 DUP3 ADD SWAP1 POP DUP2 DUP2 SUB PUSH1 0x0 DUP4 ADD MSTORE PUSH2 0xA86 DUP2 PUSH2 0xA4A JUMP JUMPDEST SWAP1 POP SWAP2 SWAP1 POP JUMP JUMPDEST PUSH32 0x4E6F7420656E6F7567682046756E647300000000000000000000000000000000 PUSH1 0x0 DUP3 ADD MSTORE POP JUMP JUMPDEST PUSH1 0x0 PUSH2 0xAC3 PUSH1 0x10 DUP4 PUSH2 0xA10 JUMP JUMPDEST SWAP2 POP PUSH2 0xACE DUP3 PUSH2 0xA8D JUMP JUMPDEST PUSH1 0x20 DUP3 ADD SWAP1 POP SWAP2 SWAP1 POP JUMP JUMPDEST PUSH1 0x0 PUSH1 0x20 DUP3 ADD SWAP1 POP DUP2 DUP2 SUB PUSH1 0x0 DUP4 ADD MSTORE PUSH2 0xAF2 DUP2 PUSH2 0xAB6 JUMP JUMPDEST SWAP1 POP SWAP2 SWAP1 POP JUMP JUMPDEST PUSH32 0x4F776E61626C653A206E6577206F776E657220697320746865207A65726F2061 PUSH1 0x0 DUP3 ADD MSTORE PUSH32 0x6464726573730000000000000000000000000000000000000000000000000000 PUSH1 0x20 DUP3 ADD MSTORE POP JUMP JUMPDEST PUSH1 0x0 PUSH2 0xB55 PUSH1 0x26 DUP4 PUSH2 0xA10 JUMP JUMPDEST SWAP2 POP PUSH2 0xB60 DUP3 PUSH2 0xAF9 JUMP JUMPDEST PUSH1 0x40 DUP3 ADD SWAP1 POP SWAP2 SWAP1 POP JUMP JUMPDEST PUSH1 0x0 PUSH1 0x20 DUP3 ADD SWAP1 POP DUP2 DUP2 SUB PUSH1 0x0 DUP4 ADD MSTORE PUSH2 0xB84 DUP2 PUSH2 0xB48 JUMP JUMPDEST SWAP1 POP SWAP2 SWAP1 POP JUMP JUMPDEST PUSH32 0x4F776E61626C653A2063616C6C6572206973206E6F7420746865206F776E6572 PUSH1 0x0 DUP3 ADD MSTORE POP JUMP JUMPDEST PUSH1 0x0 PUSH2 0xBC1 PUSH1 0x20 DUP4 PUSH2 0xA10 JUMP JUMPDEST SWAP2 POP PUSH2 0xBCC DUP3 PUSH2 0xB8B JUMP JUMPDEST PUSH1 0x20 DUP3 ADD SWAP1 POP SWAP2 SWAP1 POP JUMP JUMPDEST PUSH1 0x0 PUSH1 0x20 DUP3 ADD SWAP1 POP DUP2 DUP2 SUB PUSH1 0x0 DUP4 ADD MSTORE PUSH2 0xBF0 DUP2 PUSH2 0xBB4 JUMP JUMPDEST SWAP1 POP SWAP2 SWAP1 POP JUMP JUMPDEST PUSH32 0x4E487B7100000000000000000000000000000000000000000000000000000000 PUSH1 0x0 MSTORE PUSH1 0x11 PUSH1 0x4 MSTORE PUSH1 0x24 PUSH1 0x0 REVERT JUMPDEST PUSH1 0x0 PUSH2 0xC31 DUP3 PUSH2 0x89F JUMP JUMPDEST SWAP2 POP PUSH2 0xC3C DUP4 PUSH2 0x89F JUMP JUMPDEST SWAP3 POP DUP3 DUP3 SUB SWAP1 POP DUP2 DUP2 GT ISZERO PUSH2 0xC54 JUMPI PUSH2 0xC53 PUSH2 0xBF7 JUMP JUMPDEST JUMPDEST SWAP3 SWAP2 POP POP JUMP INVALID LOG2 PUSH5 0x6970667358 0x22 SLT KECCAK256 DUP8 STOP CHAINID 0xC7 0xDD PUSH12 0x60216E3D3070B396D853637 PUSH6 0x2855295929B0 0xE9 MLOAD CALLCODE SWAP12 PUSH9 0xB52664736F6C634300 ADDMOD GT STOP CALLER "
				},
				"gasEstimates": {
					"creation": {
						"codeDepositCost": "643200",
						"executionCost": "infinite",
						"totalCost": "infinite"
					},
					"external": {
						"addAllowance(address,uint256)": "infinite",
						"allowance(address)": "2815",
						"deposit()": "infinite",
						"owner()": "2567",
						"renounceOwnership()": "30421",
						"transferOwnership(address)": "30788",
						"withdrawMoney(address,uint256)": "infinite"
					}
				},
				"methodIdentifiers": {
					"addAllowance(address,uint256)": "f3c40c4b",
					"allowance(address)": "3e5beab9",
					"deposit()": "d0e30db0",
					"owner()": "8da5cb5b",
					"renounceOwnership()": "715018a6",
					"transferOwnership(address)": "f2fde38b",
					"withdrawMoney(address,uint256)": "f274c897"
				}
			},
			"storageLayout": {
				"storage": [
					{
						"astId": 7,
						"contract": "wallets.sol:SimpleWallet",
						"label": "_owner",
						"offset": 0,
						"slot": "0",
						"type": "t_address"
					},
					{
						"astId": 153,
						"contract": "wallets.sol:SimpleWallet",
						"label": "allowance",
						"offset": 0,
						"slot": "1",
						"type": "t_mapping(t_address,t_uint256)"
					}
				],
				"types": {
					"t_address": {
						"encoding": "inplace",
						"label": "address",
						"numberOfBytes": "20"
					},
					"t_mapping(t_address,t_uint256)": {
						"encoding": "mapping",
						"key": "t_address",
						"label": "mapping(address => uint256)",
						"numberOfBytes": "32",
						"value": "t_uint256"
					},
					"t_uint256": {
						"encoding": "inplace",
						"label": "uint256",
						"numberOfBytes": "32"
					}
				}
			},
			"userdoc": {
				"kind": "user",
				"methods": {},
				"version": 1
			}
		}
	}
}